Archive member included because of file (symbol)

c:/siliconlabs/simplicitystudio/v3/developer/toolchains/gnu_arm/4.8_2013q4/bin/../lib/gcc/arm-none-eabi/4.8.3/armv6-m\libgcc.a(_thumb1_case_uqi.o)
                              ./emlib/em_adc.o (__gnu_thumb1_case_uqi)
c:/siliconlabs/simplicitystudio/v3/developer/toolchains/gnu_arm/4.8_2013q4/bin/../lib/gcc/arm-none-eabi/4.8.3/armv6-m\libgcc.a(_udivsi3.o)
                              ./src/my_printf.o (__aeabi_uidiv)
c:/siliconlabs/simplicitystudio/v3/developer/toolchains/gnu_arm/4.8_2013q4/bin/../lib/gcc/arm-none-eabi/4.8.3/armv6-m\libgcc.a(_divsi3.o)
                              ./Graphics/glib_line.o (__aeabi_idiv)
c:/siliconlabs/simplicitystudio/v3/developer/toolchains/gnu_arm/4.8_2013q4/bin/../lib/gcc/arm-none-eabi/4.8.3/armv6-m\libgcc.a(_dvmd_tls.o)
                              c:/siliconlabs/simplicitystudio/v3/developer/toolchains/gnu_arm/4.8_2013q4/bin/../lib/gcc/arm-none-eabi/4.8.3/armv6-m\libgcc.a(_udivsi3.o) (__aeabi_idiv0)
c:/siliconlabs/simplicitystudio/v3/developer/toolchains/gnu_arm/4.8_2013q4/bin/../lib/gcc/arm-none-eabi/4.8.3/armv6-m\libgcc.a(_arm_cmpsf2.o)
                              ./src/main.o (__aeabi_fcmplt)
c:/siliconlabs/simplicitystudio/v3/developer/toolchains/gnu_arm/4.8_2013q4/bin/../lib/gcc/arm-none-eabi/4.8.3/armv6-m\libgcc.a(_aeabi_uldivmod.o)
                              ./Drivers/rtcdriver.o (__aeabi_uldivmod)
c:/siliconlabs/simplicitystudio/v3/developer/toolchains/gnu_arm/4.8_2013q4/bin/../lib/gcc/arm-none-eabi/4.8.3/armv6-m\libgcc.a(_muldi3.o)
                              ./Drivers/rtcdriver.o (__aeabi_lmul)
c:/siliconlabs/simplicitystudio/v3/developer/toolchains/gnu_arm/4.8_2013q4/bin/../lib/gcc/arm-none-eabi/4.8.3/armv6-m\libgcc.a(bpabi.o)
                              c:/siliconlabs/simplicitystudio/v3/developer/toolchains/gnu_arm/4.8_2013q4/bin/../lib/gcc/arm-none-eabi/4.8.3/armv6-m\libgcc.a(_aeabi_uldivmod.o) (__gnu_uldivmod_helper)
c:/siliconlabs/simplicitystudio/v3/developer/toolchains/gnu_arm/4.8_2013q4/bin/../lib/gcc/arm-none-eabi/4.8.3/armv6-m\libgcc.a(addsf3.o)
                              ./src/main.o (__aeabi_fadd)
c:/siliconlabs/simplicitystudio/v3/developer/toolchains/gnu_arm/4.8_2013q4/bin/../lib/gcc/arm-none-eabi/4.8.3/armv6-m\libgcc.a(eqsf2.o)
                              c:/siliconlabs/simplicitystudio/v3/developer/toolchains/gnu_arm/4.8_2013q4/bin/../lib/gcc/arm-none-eabi/4.8.3/armv6-m\libgcc.a(_arm_cmpsf2.o) (__eqsf2)
c:/siliconlabs/simplicitystudio/v3/developer/toolchains/gnu_arm/4.8_2013q4/bin/../lib/gcc/arm-none-eabi/4.8.3/armv6-m\libgcc.a(gesf2.o)
                              c:/siliconlabs/simplicitystudio/v3/developer/toolchains/gnu_arm/4.8_2013q4/bin/../lib/gcc/arm-none-eabi/4.8.3/armv6-m\libgcc.a(_arm_cmpsf2.o) (__gesf2)
c:/siliconlabs/simplicitystudio/v3/developer/toolchains/gnu_arm/4.8_2013q4/bin/../lib/gcc/arm-none-eabi/4.8.3/armv6-m\libgcc.a(lesf2.o)
                              c:/siliconlabs/simplicitystudio/v3/developer/toolchains/gnu_arm/4.8_2013q4/bin/../lib/gcc/arm-none-eabi/4.8.3/armv6-m\libgcc.a(_arm_cmpsf2.o) (__lesf2)
c:/siliconlabs/simplicitystudio/v3/developer/toolchains/gnu_arm/4.8_2013q4/bin/../lib/gcc/arm-none-eabi/4.8.3/armv6-m\libgcc.a(mulsf3.o)
                              ./src/main.o (__aeabi_fmul)
c:/siliconlabs/simplicitystudio/v3/developer/toolchains/gnu_arm/4.8_2013q4/bin/../lib/gcc/arm-none-eabi/4.8.3/armv6-m\libgcc.a(floatsisf.o)
                              ./src/ina2xx.o (__aeabi_i2f)
c:/siliconlabs/simplicitystudio/v3/developer/toolchains/gnu_arm/4.8_2013q4/bin/../lib/gcc/arm-none-eabi/4.8.3/armv6-m\libgcc.a(muldf3.o)
                              ./src/ina2xx.o (__aeabi_dmul)
c:/siliconlabs/simplicitystudio/v3/developer/toolchains/gnu_arm/4.8_2013q4/bin/../lib/gcc/arm-none-eabi/4.8.3/armv6-m\libgcc.a(fixdfsi.o)
                              ./src/main.o (__aeabi_d2iz)
c:/siliconlabs/simplicitystudio/v3/developer/toolchains/gnu_arm/4.8_2013q4/bin/../lib/gcc/arm-none-eabi/4.8.3/armv6-m\libgcc.a(floatunsidf.o)
                              ./src/main.o (__aeabi_ui2d)
c:/siliconlabs/simplicitystudio/v3/developer/toolchains/gnu_arm/4.8_2013q4/bin/../lib/gcc/arm-none-eabi/4.8.3/armv6-m\libgcc.a(extendsfdf2.o)
                              ./src/ina2xx.o (__aeabi_f2d)
c:/siliconlabs/simplicitystudio/v3/developer/toolchains/gnu_arm/4.8_2013q4/bin/../lib/gcc/arm-none-eabi/4.8.3/armv6-m\libgcc.a(truncdfsf2.o)
                              ./src/ina2xx.o (__aeabi_d2f)
c:/siliconlabs/simplicitystudio/v3/developer/toolchains/gnu_arm/4.8_2013q4/bin/../lib/gcc/arm-none-eabi/4.8.3/armv6-m\libgcc.a(_clzsi2.o)
                              c:/siliconlabs/simplicitystudio/v3/developer/toolchains/gnu_arm/4.8_2013q4/bin/../lib/gcc/arm-none-eabi/4.8.3/armv6-m\libgcc.a(addsf3.o) (__clzsi2)
c:/siliconlabs/simplicitystudio/v3/developer/toolchains/gnu_arm/4.8_2013q4/bin/../lib/gcc/arm-none-eabi/4.8.3/armv6-m\libgcc.a(_divdi3.o)
                              c:/siliconlabs/simplicitystudio/v3/developer/toolchains/gnu_arm/4.8_2013q4/bin/../lib/gcc/arm-none-eabi/4.8.3/armv6-m\libgcc.a(bpabi.o) (__divdi3)
c:/siliconlabs/simplicitystudio/v3/developer/toolchains/gnu_arm/4.8_2013q4/bin/../lib/gcc/arm-none-eabi/4.8.3/armv6-m\libgcc.a(_udivdi3.o)
                              c:/siliconlabs/simplicitystudio/v3/developer/toolchains/gnu_arm/4.8_2013q4/bin/../lib/gcc/arm-none-eabi/4.8.3/armv6-m\libgcc.a(bpabi.o) (__udivdi3)
c:/siliconlabs/simplicitystudio/v3/developer/toolchains/gnu_arm/4.8_2013q4/bin/../lib/gcc/arm-none-eabi/4.8.3/../../../../arm-none-eabi/lib/armv6-m\libc_s.a(lib_a-abs.o)
                              ./src/main.o (abs)
c:/siliconlabs/simplicitystudio/v3/developer/toolchains/gnu_arm/4.8_2013q4/bin/../lib/gcc/arm-none-eabi/4.8.3/../../../../arm-none-eabi/lib/armv6-m\libc_s.a(lib_a-ctype_.o)
                              ./Drivers/textdisplay.o (__ctype_ptr__)
c:/siliconlabs/simplicitystudio/v3/developer/toolchains/gnu_arm/4.8_2013q4/bin/../lib/gcc/arm-none-eabi/4.8.3/../../../../arm-none-eabi/lib/armv6-m\libc_s.a(lib_a-exit.o)
                              c:/siliconlabs/simplicitystudio/v3/developer/toolchains/gnu_arm/4.8_2013q4/bin/../lib/gcc/arm-none-eabi/4.8.3/../../../../arm-none-eabi/lib/armv6-m/crt0.o (exit)
c:/siliconlabs/simplicitystudio/v3/developer/toolchains/gnu_arm/4.8_2013q4/bin/../lib/gcc/arm-none-eabi/4.8.3/../../../../arm-none-eabi/lib/armv6-m\libc_s.a(lib_a-fileno.o)
                              ./Drivers/retargetio.o (fileno)
c:/siliconlabs/simplicitystudio/v3/developer/toolchains/gnu_arm/4.8_2013q4/bin/../lib/gcc/arm-none-eabi/4.8.3/../../../../arm-none-eabi/lib/armv6-m\libc_s.a(lib_a-findfp.o)
                              c:/siliconlabs/simplicitystudio/v3/developer/toolchains/gnu_arm/4.8_2013q4/bin/../lib/gcc/arm-none-eabi/4.8.3/../../../../arm-none-eabi/lib/armv6-m\libc_s.a(lib_a-fileno.o) (__sinit)
c:/siliconlabs/simplicitystudio/v3/developer/toolchains/gnu_arm/4.8_2013q4/bin/../lib/gcc/arm-none-eabi/4.8.3/../../../../arm-none-eabi/lib/armv6-m\libc_s.a(lib_a-fwalk.o)
                              c:/siliconlabs/simplicitystudio/v3/developer/toolchains/gnu_arm/4.8_2013q4/bin/../lib/gcc/arm-none-eabi/4.8.3/../../../../arm-none-eabi/lib/armv6-m\libc_s.a(lib_a-findfp.o) (_fwalk)
c:/siliconlabs/simplicitystudio/v3/developer/toolchains/gnu_arm/4.8_2013q4/bin/../lib/gcc/arm-none-eabi/4.8.3/../../../../arm-none-eabi/lib/armv6-m\libc_s.a(lib_a-impure.o)
                              c:/siliconlabs/simplicitystudio/v3/developer/toolchains/gnu_arm/4.8_2013q4/bin/../lib/gcc/arm-none-eabi/4.8.3/../../../../arm-none-eabi/lib/armv6-m\libc_s.a(lib_a-exit.o) (_global_impure_ptr)
c:/siliconlabs/simplicitystudio/v3/developer/toolchains/gnu_arm/4.8_2013q4/bin/../lib/gcc/arm-none-eabi/4.8.3/../../../../arm-none-eabi/lib/armv6-m\libc_s.a(lib_a-init.o)
                              c:/siliconlabs/simplicitystudio/v3/developer/toolchains/gnu_arm/4.8_2013q4/bin/../lib/gcc/arm-none-eabi/4.8.3/../../../../arm-none-eabi/lib/armv6-m/crt0.o (__libc_init_array)
c:/siliconlabs/simplicitystudio/v3/developer/toolchains/gnu_arm/4.8_2013q4/bin/../lib/gcc/arm-none-eabi/4.8.3/../../../../arm-none-eabi/lib/armv6-m\libc_s.a(lib_a-memcpy-stub.o)
                              ./Graphics/dmd_display.o (memcpy)
c:/siliconlabs/simplicitystudio/v3/developer/toolchains/gnu_arm/4.8_2013q4/bin/../lib/gcc/arm-none-eabi/4.8.3/../../../../arm-none-eabi/lib/armv6-m\libc_s.a(lib_a-memset.o)
                              c:/siliconlabs/simplicitystudio/v3/developer/toolchains/gnu_arm/4.8_2013q4/bin/../lib/gcc/arm-none-eabi/4.8.3/../../../../arm-none-eabi/lib/armv6-m/crt0.o (memset)
c:/siliconlabs/simplicitystudio/v3/developer/toolchains/gnu_arm/4.8_2013q4/bin/../lib/gcc/arm-none-eabi/4.8.3/../../../../arm-none-eabi/lib/armv6-m\libc_s.a(lib_a-nano-mallocr.o)
                              c:/siliconlabs/simplicitystudio/v3/developer/toolchains/gnu_arm/4.8_2013q4/bin/../lib/gcc/arm-none-eabi/4.8.3/../../../../arm-none-eabi/lib/armv6-m\libc_s.a(lib_a-findfp.o) (_malloc_r)
c:/siliconlabs/simplicitystudio/v3/developer/toolchains/gnu_arm/4.8_2013q4/bin/../lib/gcc/arm-none-eabi/4.8.3/../../../../arm-none-eabi/lib/armv6-m\libc_s.a(lib_a-printf.o)
                              ./src/main.o (printf)
c:/siliconlabs/simplicitystudio/v3/developer/toolchains/gnu_arm/4.8_2013q4/bin/../lib/gcc/arm-none-eabi/4.8.3/../../../../arm-none-eabi/lib/armv6-m\libc_s.a(lib_a-sbrkr.o)
                              c:/siliconlabs/simplicitystudio/v3/developer/toolchains/gnu_arm/4.8_2013q4/bin/../lib/gcc/arm-none-eabi/4.8.3/../../../../arm-none-eabi/lib/armv6-m\libc_s.a(lib_a-nano-mallocr.o) (_sbrk_r)
c:/siliconlabs/simplicitystudio/v3/developer/toolchains/gnu_arm/4.8_2013q4/bin/../lib/gcc/arm-none-eabi/4.8.3/../../../../arm-none-eabi/lib/armv6-m\libc_s.a(lib_a-setvbuf.o)
                              ./Drivers/retargetserial.o (setvbuf)
c:/siliconlabs/simplicitystudio/v3/developer/toolchains/gnu_arm/4.8_2013q4/bin/../lib/gcc/arm-none-eabi/4.8.3/../../../../arm-none-eabi/lib/armv6-m\libc_s.a(lib_a-stdio.o)
                              c:/siliconlabs/simplicitystudio/v3/developer/toolchains/gnu_arm/4.8_2013q4/bin/../lib/gcc/arm-none-eabi/4.8.3/../../../../arm-none-eabi/lib/armv6-m\libc_s.a(lib_a-findfp.o) (__sread)
c:/siliconlabs/simplicitystudio/v3/developer/toolchains/gnu_arm/4.8_2013q4/bin/../lib/gcc/arm-none-eabi/4.8.3/../../../../arm-none-eabi/lib/armv6-m\libc_s.a(lib_a-strlen.o)
                              ./Drivers/retargetio.o (strlen)
c:/siliconlabs/simplicitystudio/v3/developer/toolchains/gnu_arm/4.8_2013q4/bin/../lib/gcc/arm-none-eabi/4.8.3/../../../../arm-none-eabi/lib/armv6-m\libc_s.a(lib_a-strncmp.o)
                              ./Drivers/textdisplay.o (strncmp)
c:/siliconlabs/simplicitystudio/v3/developer/toolchains/gnu_arm/4.8_2013q4/bin/../lib/gcc/arm-none-eabi/4.8.3/../../../../arm-none-eabi/lib/armv6-m\libc_s.a(lib_a-vfprintf.o)
                              c:/siliconlabs/simplicitystudio/v3/developer/toolchains/gnu_arm/4.8_2013q4/bin/../lib/gcc/arm-none-eabi/4.8.3/../../../../arm-none-eabi/lib/armv6-m\libc_s.a(lib_a-printf.o) (_vfprintf_r)
c:/siliconlabs/simplicitystudio/v3/developer/toolchains/gnu_arm/4.8_2013q4/bin/../lib/gcc/arm-none-eabi/4.8.3/../../../../arm-none-eabi/lib/armv6-m\libc_s.a(lib_a-vfprintf_i.o)
                              c:/siliconlabs/simplicitystudio/v3/developer/toolchains/gnu_arm/4.8_2013q4/bin/../lib/gcc/arm-none-eabi/4.8.3/../../../../arm-none-eabi/lib/armv6-m\libc_s.a(lib_a-vfprintf.o) (_printf_i)
c:/siliconlabs/simplicitystudio/v3/developer/toolchains/gnu_arm/4.8_2013q4/bin/../lib/gcc/arm-none-eabi/4.8.3/../../../../arm-none-eabi/lib/armv6-m\libc_s.a(lib_a-wbuf.o)
                              c:/siliconlabs/simplicitystudio/v3/developer/toolchains/gnu_arm/4.8_2013q4/bin/../lib/gcc/arm-none-eabi/4.8.3/../../../../arm-none-eabi/lib/armv6-m\libc_s.a(lib_a-vfprintf.o) (__swbuf_r)
c:/siliconlabs/simplicitystudio/v3/developer/toolchains/gnu_arm/4.8_2013q4/bin/../lib/gcc/arm-none-eabi/4.8.3/../../../../arm-none-eabi/lib/armv6-m\libc_s.a(lib_a-writer.o)
                              c:/siliconlabs/simplicitystudio/v3/developer/toolchains/gnu_arm/4.8_2013q4/bin/../lib/gcc/arm-none-eabi/4.8.3/../../../../arm-none-eabi/lib/armv6-m\libc_s.a(lib_a-stdio.o) (_write_r)
c:/siliconlabs/simplicitystudio/v3/developer/toolchains/gnu_arm/4.8_2013q4/bin/../lib/gcc/arm-none-eabi/4.8.3/../../../../arm-none-eabi/lib/armv6-m\libc_s.a(lib_a-wsetup.o)
                              c:/siliconlabs/simplicitystudio/v3/developer/toolchains/gnu_arm/4.8_2013q4/bin/../lib/gcc/arm-none-eabi/4.8.3/../../../../arm-none-eabi/lib/armv6-m\libc_s.a(lib_a-vfprintf.o) (__swsetup_r)
c:/siliconlabs/simplicitystudio/v3/developer/toolchains/gnu_arm/4.8_2013q4/bin/../lib/gcc/arm-none-eabi/4.8.3/../../../../arm-none-eabi/lib/armv6-m\libc_s.a(lib_a-closer.o)
                              c:/siliconlabs/simplicitystudio/v3/developer/toolchains/gnu_arm/4.8_2013q4/bin/../lib/gcc/arm-none-eabi/4.8.3/../../../../arm-none-eabi/lib/armv6-m\libc_s.a(lib_a-stdio.o) (_close_r)
c:/siliconlabs/simplicitystudio/v3/developer/toolchains/gnu_arm/4.8_2013q4/bin/../lib/gcc/arm-none-eabi/4.8.3/../../../../arm-none-eabi/lib/armv6-m\libc_s.a(lib_a-fflush.o)
                              c:/siliconlabs/simplicitystudio/v3/developer/toolchains/gnu_arm/4.8_2013q4/bin/../lib/gcc/arm-none-eabi/4.8.3/../../../../arm-none-eabi/lib/armv6-m\libc_s.a(lib_a-findfp.o) (_fflush_r)
c:/siliconlabs/simplicitystudio/v3/developer/toolchains/gnu_arm/4.8_2013q4/bin/../lib/gcc/arm-none-eabi/4.8.3/../../../../arm-none-eabi/lib/armv6-m\libc_s.a(lib_a-fvwrite.o)
                              c:/siliconlabs/simplicitystudio/v3/developer/toolchains/gnu_arm/4.8_2013q4/bin/../lib/gcc/arm-none-eabi/4.8.3/../../../../arm-none-eabi/lib/armv6-m\libc_s.a(lib_a-vfprintf.o) (__sfvwrite_r)
c:/siliconlabs/simplicitystudio/v3/developer/toolchains/gnu_arm/4.8_2013q4/bin/../lib/gcc/arm-none-eabi/4.8.3/../../../../arm-none-eabi/lib/armv6-m\libc_s.a(lib_a-lseekr.o)
                              c:/siliconlabs/simplicitystudio/v3/developer/toolchains/gnu_arm/4.8_2013q4/bin/../lib/gcc/arm-none-eabi/4.8.3/../../../../arm-none-eabi/lib/armv6-m\libc_s.a(lib_a-stdio.o) (_lseek_r)
c:/siliconlabs/simplicitystudio/v3/developer/toolchains/gnu_arm/4.8_2013q4/bin/../lib/gcc/arm-none-eabi/4.8.3/../../../../arm-none-eabi/lib/armv6-m\libc_s.a(lib_a-makebuf.o)
                              c:/siliconlabs/simplicitystudio/v3/developer/toolchains/gnu_arm/4.8_2013q4/bin/../lib/gcc/arm-none-eabi/4.8.3/../../../../arm-none-eabi/lib/armv6-m\libc_s.a(lib_a-wsetup.o) (__smakebuf_r)
c:/siliconlabs/simplicitystudio/v3/developer/toolchains/gnu_arm/4.8_2013q4/bin/../lib/gcc/arm-none-eabi/4.8.3/../../../../arm-none-eabi/lib/armv6-m\libc_s.a(lib_a-malloc.o)
                              c:/siliconlabs/simplicitystudio/v3/developer/toolchains/gnu_arm/4.8_2013q4/bin/../lib/gcc/arm-none-eabi/4.8.3/../../../../arm-none-eabi/lib/armv6-m\libc_s.a(lib_a-setvbuf.o) (malloc)
c:/siliconlabs/simplicitystudio/v3/developer/toolchains/gnu_arm/4.8_2013q4/bin/../lib/gcc/arm-none-eabi/4.8.3/../../../../arm-none-eabi/lib/armv6-m\libc_s.a(lib_a-memchr-stub.o)
                              c:/siliconlabs/simplicitystudio/v3/developer/toolchains/gnu_arm/4.8_2013q4/bin/../lib/gcc/arm-none-eabi/4.8.3/../../../../arm-none-eabi/lib/armv6-m\libc_s.a(lib_a-vfprintf.o) (memchr)
c:/siliconlabs/simplicitystudio/v3/developer/toolchains/gnu_arm/4.8_2013q4/bin/../lib/gcc/arm-none-eabi/4.8.3/../../../../arm-none-eabi/lib/armv6-m\libc_s.a(lib_a-memmove.o)
                              c:/siliconlabs/simplicitystudio/v3/developer/toolchains/gnu_arm/4.8_2013q4/bin/../lib/gcc/arm-none-eabi/4.8.3/../../../../arm-none-eabi/lib/armv6-m\libc_s.a(lib_a-fvwrite.o) (memmove)
c:/siliconlabs/simplicitystudio/v3/developer/toolchains/gnu_arm/4.8_2013q4/bin/../lib/gcc/arm-none-eabi/4.8.3/../../../../arm-none-eabi/lib/armv6-m\libc_s.a(lib_a-nano-freer.o)
                              c:/siliconlabs/simplicitystudio/v3/developer/toolchains/gnu_arm/4.8_2013q4/bin/../lib/gcc/arm-none-eabi/4.8.3/../../../../arm-none-eabi/lib/armv6-m\libc_s.a(lib_a-setvbuf.o) (_free_r)
c:/siliconlabs/simplicitystudio/v3/developer/toolchains/gnu_arm/4.8_2013q4/bin/../lib/gcc/arm-none-eabi/4.8.3/../../../../arm-none-eabi/lib/armv6-m\libc_s.a(lib_a-nano-reallocr.o)
                              c:/siliconlabs/simplicitystudio/v3/developer/toolchains/gnu_arm/4.8_2013q4/bin/../lib/gcc/arm-none-eabi/4.8.3/../../../../arm-none-eabi/lib/armv6-m\libc_s.a(lib_a-fvwrite.o) (_realloc_r)
c:/siliconlabs/simplicitystudio/v3/developer/toolchains/gnu_arm/4.8_2013q4/bin/../lib/gcc/arm-none-eabi/4.8.3/../../../../arm-none-eabi/lib/armv6-m\libc_s.a(lib_a-readr.o)
                              c:/siliconlabs/simplicitystudio/v3/developer/toolchains/gnu_arm/4.8_2013q4/bin/../lib/gcc/arm-none-eabi/4.8.3/../../../../arm-none-eabi/lib/armv6-m\libc_s.a(lib_a-stdio.o) (_read_r)
c:/siliconlabs/simplicitystudio/v3/developer/toolchains/gnu_arm/4.8_2013q4/bin/../lib/gcc/arm-none-eabi/4.8.3/../../../../arm-none-eabi/lib/armv6-m\libc_s.a(lib_a-reent.o)
                              c:/siliconlabs/simplicitystudio/v3/developer/toolchains/gnu_arm/4.8_2013q4/bin/../lib/gcc/arm-none-eabi/4.8.3/../../../../arm-none-eabi/lib/armv6-m\libc_s.a(lib_a-sbrkr.o) (errno)
c:/siliconlabs/simplicitystudio/v3/developer/toolchains/gnu_arm/4.8_2013q4/bin/../lib/gcc/arm-none-eabi/4.8.3/../../../../arm-none-eabi/lib/armv6-m\libc_s.a(lib_a-fstatr.o)
                              c:/siliconlabs/simplicitystudio/v3/developer/toolchains/gnu_arm/4.8_2013q4/bin/../lib/gcc/arm-none-eabi/4.8.3/../../../../arm-none-eabi/lib/armv6-m\libc_s.a(lib_a-makebuf.o) (_fstat_r)
c:/siliconlabs/simplicitystudio/v3/developer/toolchains/gnu_arm/4.8_2013q4/bin/../lib/gcc/arm-none-eabi/4.8.3/../../../../arm-none-eabi/lib/armv6-m\libc_s.a(lib_a-isattyr.o)
                              c:/siliconlabs/simplicitystudio/v3/developer/toolchains/gnu_arm/4.8_2013q4/bin/../lib/gcc/arm-none-eabi/4.8.3/../../../../arm-none-eabi/lib/armv6-m\libc_s.a(lib_a-makebuf.o) (_isatty_r)
c:/siliconlabs/simplicitystudio/v3/developer/toolchains/gnu_arm/4.8_2013q4/bin/../lib/gcc/arm-none-eabi/4.8.3/../../../../arm-none-eabi/lib/armv6-m\libc_s.a(lib_a-nano-msizer.o)
                              c:/siliconlabs/simplicitystudio/v3/developer/toolchains/gnu_arm/4.8_2013q4/bin/../lib/gcc/arm-none-eabi/4.8.3/../../../../arm-none-eabi/lib/armv6-m\libc_s.a(lib_a-nano-reallocr.o) (_malloc_usable_size_r)

Allocating common symbols
Common symbol       size              file

charBufferDevice0   0x150             ./Drivers/textdisplay.o
errno               0x4               c:/siliconlabs/simplicitystudio/v3/developer/toolchains/gnu_arm/4.8_2013q4/bin/../lib/gcc/arm-none-eabi/4.8.3/../../../../arm-none-eabi/lib/armv6-m\libc_s.a(lib_a-reent.o)
dirtyRows           0x10              ./Graphics/dmd_display.o
SystemCoreClock     0x4               ./CMSIS/efm32zg/system_efm32zg.o
gestureTimeoutTimerId
                    0x4               ./src/main.o
periodicUpdateTimerId
                    0x4               ./src/main.o
msTicks             0x4               ./src/main.o
animationTimerId    0x4               ./src/main.o
charArrayDevice0    0x40              ./Drivers/textdisplay.o
millisecondsTimerId
                    0x4               ./src/main.o

Discarded input sections

 .text          0x00000000        0x0 c:/siliconlabs/simplicitystudio/v3/developer/toolchains/gnu_arm/4.8_2013q4/bin/../lib/gcc/arm-none-eabi/4.8.3/armv6-m/crti.o
 .data          0x00000000        0x0 c:/siliconlabs/simplicitystudio/v3/developer/toolchains/gnu_arm/4.8_2013q4/bin/../lib/gcc/arm-none-eabi/4.8.3/armv6-m/crti.o
 .bss           0x00000000        0x0 c:/siliconlabs/simplicitystudio/v3/developer/toolchains/gnu_arm/4.8_2013q4/bin/../lib/gcc/arm-none-eabi/4.8.3/armv6-m/crti.o
 .data          0x00000000        0x4 c:/siliconlabs/simplicitystudio/v3/developer/toolchains/gnu_arm/4.8_2013q4/bin/../lib/gcc/arm-none-eabi/4.8.3/armv6-m/crtbegin.o
 .data          0x00000000        0x0 c:/siliconlabs/simplicitystudio/v3/developer/toolchains/gnu_arm/4.8_2013q4/bin/../lib/gcc/arm-none-eabi/4.8.3/../../../../arm-none-eabi/lib/armv6-m/crt0.o
 .bss           0x00000000        0x0 c:/siliconlabs/simplicitystudio/v3/developer/toolchains/gnu_arm/4.8_2013q4/bin/../lib/gcc/arm-none-eabi/4.8.3/../../../../arm-none-eabi/lib/armv6-m/crt0.o
 .ARM.extab     0x00000000        0x0 c:/siliconlabs/simplicitystudio/v3/developer/toolchains/gnu_arm/4.8_2013q4/bin/../lib/gcc/arm-none-eabi/4.8.3/../../../../arm-none-eabi/lib/armv6-m/crt0.o
 .text          0x00000000        0x0 ./src/background.o
 .data          0x00000000        0x0 ./src/background.o
 .bss           0x00000000        0x0 ./src/background.o
 .rodata.background
                0x00000000     0x1800 ./src/background.o
 .debug_info    0x00000000       0x9e ./src/background.o
 .debug_abbrev  0x00000000       0x5d ./src/background.o
 .debug_aranges
                0x00000000       0x18 ./src/background.o
 .debug_line    0x00000000       0xa1 ./src/background.o
 .debug_str     0x00000000      0x1d1 ./src/background.o
Memory Configuration

Name             Origin             Length             Attributes
FLASH            0x00000000         0x00008000         xr
RAM              0x20000000         0x00001000         xrw
*default*        0x00000000         0xffffffff

Linker script and memory map

LOAD c:/siliconlabs/simplicitystudio/v3/developer/toolchains/gnu_arm/4.8_2013q4/bin/../lib/gcc/arm-none-eabi/4.8.3/armv6-m/crti.o
LOAD c:/siliconlabs/simplicitystudio/v3/developer/toolchains/gnu_arm/4.8_2013q4/bin/../lib/gcc/arm-none-eabi/4.8.3/armv6-m/crtbegin.o
LOAD c:/siliconlabs/simplicitystudio/v3/developer/toolchains/gnu_arm/4.8_2013q4/bin/../lib/gcc/arm-none-eabi/4.8.3/../../../../arm-none-eabi/lib/armv6-m/crt0.o
LOAD ./src/background.o
LOAD ./src/ina2xx.o
LOAD ./src/my_printf.o
LOAD ./emlib/em_adc.o
LOAD ./emlib/em_assert.o
LOAD ./emlib/em_cmu.o
LOAD ./emlib/em_emu.o
LOAD ./emlib/em_gpio.o
LOAD ./emlib/em_i2c.o
LOAD ./emlib/em_int.o
LOAD ./emlib/em_leuart.o
LOAD ./emlib/em_prs.o
LOAD ./emlib/em_rtc.o
LOAD ./emlib/em_timer.o
LOAD ./emlib/em_usart.o
LOAD ./Graphics/dmd_display.o
LOAD ./Graphics/glib.o
LOAD ./Graphics/glib_bitmap.o
LOAD ./Graphics/glib_circle.o
LOAD ./Graphics/glib_font_normal_8x8.o
LOAD ./Graphics/glib_line.o
LOAD ./Graphics/glib_rectangle.o
LOAD ./Graphics/glib_string.o
LOAD ./Drivers/display.o
LOAD ./Drivers/displayls013b7dh03.o
LOAD ./Drivers/displaypalemlib.o
LOAD ./Drivers/i2cspm.o
LOAD ./Drivers/retargetio.o
LOAD ./Drivers/rtcdriver.o
LOAD ./Drivers/si1147_i2c.o
LOAD ./Drivers/si114x_algorithm.o
LOAD ./Drivers/si114x_functions.o
LOAD ./Drivers/si7013.o
LOAD ./Drivers/textdisplay.o
LOAD ./Drivers/udelay.o
LOAD ./CMSIS/efm32zg/startup_efm32zg.o
LOAD ./CMSIS/efm32zg/system_efm32zg.o
LOAD ./BSP/bsp_bcc.o
LOAD ./BSP/bsp_stk.o
LOAD ./src/main.o
LOAD ./Drivers/retargetserial.o
START GROUP
LOAD c:/siliconlabs/simplicitystudio/v3/developer/toolchains/gnu_arm/4.8_2013q4/bin/../lib/gcc/arm-none-eabi/4.8.3/armv6-m\libgcc.a
LOAD c:/siliconlabs/simplicitystudio/v3/developer/toolchains/gnu_arm/4.8_2013q4/bin/../lib/gcc/arm-none-eabi/4.8.3/../../../../arm-none-eabi/lib/armv6-m\libc_s.a
LOAD c:/siliconlabs/simplicitystudio/v3/developer/toolchains/gnu_arm/4.8_2013q4/bin/../lib/gcc/arm-none-eabi/4.8.3/../../../../arm-none-eabi/lib/armv6-m\libnosys.a
END GROUP
START GROUP
LOAD c:/siliconlabs/simplicitystudio/v3/developer/toolchains/gnu_arm/4.8_2013q4/bin/../lib/gcc/arm-none-eabi/4.8.3/armv6-m\libgcc.a
LOAD c:/siliconlabs/simplicitystudio/v3/developer/toolchains/gnu_arm/4.8_2013q4/bin/../lib/gcc/arm-none-eabi/4.8.3/../../../../arm-none-eabi/lib/armv6-m\libg_s.a
LOAD c:/siliconlabs/simplicitystudio/v3/developer/toolchains/gnu_arm/4.8_2013q4/bin/../lib/gcc/arm-none-eabi/4.8.3/../../../../arm-none-eabi/lib/armv6-m\libc_s.a
END GROUP
START GROUP
LOAD c:/siliconlabs/simplicitystudio/v3/developer/toolchains/gnu_arm/4.8_2013q4/bin/../lib/gcc/arm-none-eabi/4.8.3/armv6-m\libgcc.a
LOAD c:/siliconlabs/simplicitystudio/v3/developer/toolchains/gnu_arm/4.8_2013q4/bin/../lib/gcc/arm-none-eabi/4.8.3/../../../../arm-none-eabi/lib/armv6-m\libc_s.a
END GROUP
LOAD c:/siliconlabs/simplicitystudio/v3/developer/toolchains/gnu_arm/4.8_2013q4/bin/../lib/gcc/arm-none-eabi/4.8.3/armv6-m/crtend.o
LOAD c:/siliconlabs/simplicitystudio/v3/developer/toolchains/gnu_arm/4.8_2013q4/bin/../lib/gcc/arm-none-eabi/4.8.3/armv6-m/crtn.o

.text           0x00000000     0x5570
 *(.vectors)
 .vectors       0x00000000       0x84 ./CMSIS/efm32zg/startup_efm32zg.o
                0x00000000                __Vectors
                0x00000084                __Vectors_End = .
                0x00000084                __Vectors_Size = (__Vectors_End - __Vectors)
                0x00000084                __end__ = .
 *(.text*)
 .text          0x00000084       0x60 c:/siliconlabs/simplicitystudio/v3/developer/toolchains/gnu_arm/4.8_2013q4/bin/../lib/gcc/arm-none-eabi/4.8.3/armv6-m/crtbegin.o
 .text          0x000000e4       0x78 c:/siliconlabs/simplicitystudio/v3/developer/toolchains/gnu_arm/4.8_2013q4/bin/../lib/gcc/arm-none-eabi/4.8.3/../../../../arm-none-eabi/lib/armv6-m/crt0.o
                0x000000e4                _start
                0x000000e4                _mainCRTStartup
 .text.ina226_get
                0x0000015c       0x44 ./src/ina2xx.o
                0x0000015c                ina226_get
 .text.ina226_set
                0x000001a0       0x36 ./src/ina2xx.o
                0x000001a0                ina226_set
 .text.ina209_get
                0x000001d6       0x44 ./src/ina2xx.o
                0x000001d6                ina209_get
 .text.ina209_set
                0x0000021a       0x36 ./src/ina2xx.o
                0x0000021a                ina209_set
 .text.ina209GetVoltage
                0x00000250       0x40 ./src/ina2xx.o
                0x00000250                ina209GetVoltage
 .text.ina209GetCurrent
                0x00000290       0x40 ./src/ina2xx.o
                0x00000290                ina209GetCurrent
 .text.ina226GetVoltage
                0x000002d0       0x38 ./src/ina2xx.o
                0x000002d0                ina226GetVoltage
 .text.ina226GetCurrent
                0x00000308       0x40 ./src/ina2xx.o
                0x00000308                ina226GetCurrent
 .text.printchar
                0x00000348       0x10 ./src/my_printf.o
 .text.prints   0x00000358       0x7e ./src/my_printf.o
 .text.printi   0x000003d6       0xaa ./src/my_printf.o
 .text.print    0x00000480      0x110 ./src/my_printf.o
 .text.my_sprintf
                0x00000590       0x16 ./src/my_printf.o
                0x00000590                my_sprintf
 *fill*         0x000005a6        0x2 
 .text.CMU_FlashWaitStateControl
                0x000005a8       0x40 ./emlib/em_cmu.o
 .text.CMU_AUXClkGet
                0x000005e8       0x5c ./emlib/em_cmu.o
 .text.CMU_Sync
                0x00000644       0x14 ./emlib/em_cmu.o
 .text.CMU_LFClkGet
                0x00000658       0x48 ./emlib/em_cmu.o
 .text.CMU_ClockDivGet
                0x000006a0       0x5c ./emlib/em_cmu.o
                0x000006a0                CMU_ClockDivGet
 .text.CMU_ClockDivSet
                0x000006fc       0xd8 ./emlib/em_cmu.o
                0x000006fc                CMU_ClockDivSet
 .text.CMU_ClockEnable
                0x000007d4       0x74 ./emlib/em_cmu.o
                0x000007d4                CMU_ClockEnable
 .text.CMU_ClockSelectGet
                0x00000848       0x9c ./emlib/em_cmu.o
                0x00000848                CMU_ClockSelectGet
 .text.CMU_ClockFreqGet
                0x000008e4       0xbc ./emlib/em_cmu.o
                0x000008e4                CMU_ClockFreqGet
 .text.CMU_OscillatorEnable
                0x000009a0       0x50 ./emlib/em_cmu.o
                0x000009a0                CMU_OscillatorEnable
 .text.CMU_ClockSelectSet
                0x000009f0       0xe4 ./emlib/em_cmu.o
                0x000009f0                CMU_ClockSelectSet
 .text.EMU_UpdateOscConfig
                0x00000ad4       0x14 ./emlib/em_emu.o
                0x00000ad4                EMU_UpdateOscConfig
 .text.GPIO_PinModeSet
                0x00000ae8       0x8c ./emlib/em_gpio.o
                0x00000ae8                GPIO_PinModeSet
 .text.I2C_BusFreqSet
                0x00000b74       0x54 ./emlib/em_i2c.o
                0x00000b74                I2C_BusFreqSet
 .text.I2C_Init
                0x00000bc8       0x3c ./emlib/em_i2c.o
                0x00000bc8                I2C_Init
 .text.I2C_Transfer
                0x00000c04      0x230 ./emlib/em_i2c.o
                0x00000c04                I2C_Transfer
 .text.I2C_TransferInit
                0x00000e34       0x6c ./emlib/em_i2c.o
                0x00000e34                I2C_TransferInit
 .text.LEUART_Sync
                0x00000ea0        0xe ./emlib/em_leuart.o
 *fill*         0x00000eae        0x2 
 .text.LEUART_BaudrateSet
                0x00000eb0       0x40 ./emlib/em_leuart.o
                0x00000eb0                LEUART_BaudrateSet
 .text.LEUART_Enable
                0x00000ef0       0x16 ./emlib/em_leuart.o
                0x00000ef0                LEUART_Enable
 .text.LEUART_Init
                0x00000f06       0x40 ./emlib/em_leuart.o
                0x00000f06                LEUART_Init
 .text.LEUART_Rx
                0x00000f46        0xc ./emlib/em_leuart.o
                0x00000f46                LEUART_Rx
 .text.LEUART_Tx
                0x00000f52       0x18 ./emlib/em_leuart.o
                0x00000f52                LEUART_Tx
 *fill*         0x00000f6a        0x2 
 .text.PRS_SourceAsyncSignalSet
                0x00000f6c       0x20 ./emlib/em_prs.o
                0x00000f6c                PRS_SourceAsyncSignalSet
 .text.RTC_CompareGet
                0x00000f8c       0x1c ./emlib/em_rtc.o
                0x00000f8c                RTC_CompareGet
 .text.RTC_CompareSet
                0x00000fa8       0x1c ./emlib/em_rtc.o
                0x00000fa8                RTC_CompareSet
 .text.RTC_Enable
                0x00000fc4       0x14 ./emlib/em_rtc.o
                0x00000fc4                RTC_Enable
 .text.RTC_FreezeEnable
                0x00000fd8       0x14 ./emlib/em_rtc.o
                0x00000fd8                RTC_FreezeEnable
 .text.RTC_Init
                0x00000fec       0x20 ./emlib/em_rtc.o
                0x00000fec                RTC_Init
 .text.RTC_CounterReset
                0x0000100c       0x10 ./emlib/em_rtc.o
                0x0000100c                RTC_CounterReset
 .text.TIMER_Init
                0x0000101c       0x7c ./emlib/em_timer.o
                0x0000101c                TIMER_Init
 .text.TIMER_InitCC
                0x00001098       0x58 ./emlib/em_timer.o
                0x00001098                TIMER_InitCC
 .text.USART_BaudrateSyncSet
                0x000010f0       0x30 ./emlib/em_usart.o
                0x000010f0                USART_BaudrateSyncSet
 .text.USART_Reset
                0x00001120       0x3c ./emlib/em_usart.o
                0x00001120                USART_Reset
 .text.USART_InitSync
                0x0000115c       0x5c ./emlib/em_usart.o
                0x0000115c                USART_InitSync
 .text.USART_Tx
                0x000011b8        0xa ./emlib/em_usart.o
                0x000011b8                USART_Tx
 .text.USART_TxDouble
                0x000011c2        0xa ./emlib/em_usart.o
                0x000011c2                USART_TxDouble
 .text.DMD_getDisplayGeometry
                0x000011cc       0x1c ./Graphics/dmd_display.o
                0x000011cc                DMD_getDisplayGeometry
 .text.DMD_setClippingArea
                0x000011e8       0x40 ./Graphics/dmd_display.o
                0x000011e8                DMD_setClippingArea
 .text.DMD_writeColor
                0x00001228      0x15c ./Graphics/dmd_display.o
                0x00001228                DMD_writeColor
 .text.DMD_allocateFramebuffer
                0x00001384       0x38 ./Graphics/dmd_display.o
                0x00001384                DMD_allocateFramebuffer
 .text.DMD_init
                0x000013bc       0x78 ./Graphics/dmd_display.o
                0x000013bc                DMD_init
 .text.DMD_updateDisplay
                0x00001434       0xa0 ./Graphics/dmd_display.o
                0x00001434                DMD_updateDisplay
 .text.GLIB_setClippingRegion
                0x000014d4       0x6c ./Graphics/glib.o
                0x000014d4                GLIB_setClippingRegion
 .text.GLIB_contextInit
                0x00001540       0x54 ./Graphics/glib.o
                0x00001540                GLIB_contextInit
 .text.GLIB_resetDisplayClippingArea
                0x00001594       0x1a ./Graphics/glib.o
                0x00001594                GLIB_resetDisplayClippingArea
 .text.GLIB_clear
                0x000015ae       0x34 ./Graphics/glib.o
                0x000015ae                GLIB_clear
 .text.GLIB_drawPixel
                0x000015e2       0x38 ./Graphics/glib.o
                0x000015e2                GLIB_drawPixel
 .text.GLIB_drawPixelColor
                0x0000161a       0x36 ./Graphics/glib.o
                0x0000161a                GLIB_drawPixelColor
 .text.GLIB_rectContainsPoint
                0x00001650       0x2a ./Graphics/glib_rectangle.o
                0x00001650                GLIB_rectContainsPoint
 .text.GLIB_drawChar
                0x0000167a      0x128 ./Graphics/glib_string.o
                0x0000167a                GLIB_drawChar
 .text.GLIB_drawString
                0x000017a2       0x82 ./Graphics/glib_string.o
                0x000017a2                GLIB_drawString
 .text.GLIB_setFont
                0x00001824       0x20 ./Graphics/glib_string.o
                0x00001824                GLIB_setFont
 .text.DISPLAY_Init
                0x00001844       0x2c ./Drivers/display.o
                0x00001844                DISPLAY_Init
 .text.DISPLAY_DeviceGet
                0x00001870       0x3c ./Drivers/display.o
                0x00001870                DISPLAY_DeviceGet
 .text.DISPLAY_DeviceRegister
                0x000018ac       0x44 ./Drivers/display.o
                0x000018ac                DISPLAY_DeviceRegister
 .text.PixelMatrixAllocate
                0x000018f0       0x3c ./Drivers/displayls013b7dh03.o
 .text.PixelMatrixFree
                0x0000192c        0x8 ./Drivers/displayls013b7dh03.o
 .text.DriverRefresh
                0x00001934        0xe ./Drivers/displayls013b7dh03.o
 .text.PixelMatrixClear
                0x00001942       0x20 ./Drivers/displayls013b7dh03.o
 .text.PixelMatrixDraw
                0x00001962       0x76 ./Drivers/displayls013b7dh03.o
 .text.DisplayEnable.part.0
                0x000019d8       0x14 ./Drivers/displayls013b7dh03.o
 .text.DisplayEnable
                0x000019ec       0x20 ./Drivers/displayls013b7dh03.o
 .text.DISPLAY_Ls013b7dh03Init
                0x00001a0c       0xf8 ./Drivers/displayls013b7dh03.o
                0x00001a0c                DISPLAY_Ls013b7dh03Init
 .text.PAL_SpiInit
                0x00001b04       0x44 ./Drivers/displaypalemlib.o
                0x00001b04                PAL_SpiInit
 .text.PAL_SpiTransmit
                0x00001b48       0x40 ./Drivers/displaypalemlib.o
                0x00001b48                PAL_SpiTransmit
 .text.PAL_TimerInit
                0x00001b88        0xa ./Drivers/displaypalemlib.o
                0x00001b88                PAL_TimerInit
 .text.PAL_TimerMicroSecondsDelay
                0x00001b92        0xa ./Drivers/displaypalemlib.o
                0x00001b92                PAL_TimerMicroSecondsDelay
 .text.PAL_GpioInit
                0x00001b9c       0x14 ./Drivers/displaypalemlib.o
                0x00001b9c                PAL_GpioInit
 .text.PAL_GpioPinModeSet
                0x00001bb0       0x1c ./Drivers/displaypalemlib.o
                0x00001bb0                PAL_GpioPinModeSet
 .text.PAL_GpioPinOutSet
                0x00001bcc       0x1c ./Drivers/displaypalemlib.o
                0x00001bcc                PAL_GpioPinOutSet
 .text.PAL_GpioPinOutClear
                0x00001be8       0x1c ./Drivers/displaypalemlib.o
                0x00001be8                PAL_GpioPinOutClear
 .text.PAL_GpioPinAutoToggle
                0x00001c04       0xd4 ./Drivers/displaypalemlib.o
                0x00001c04                PAL_GpioPinAutoToggle
 .text.I2CSPM_Init
                0x00001cd8       0x90 ./Drivers/i2cspm.o
                0x00001cd8                I2CSPM_Init
 .text.I2CSPM_Transfer
                0x00001d68       0x24 ./Drivers/i2cspm.o
                0x00001d68                I2CSPM_Transfer
 .text._close   0x00001d8c        0x4 ./Drivers/retargetio.o
                0x00001d8c                _close
 .text._exit    0x00001d90        0x2 ./Drivers/retargetio.o
                0x00001d90                _exit
 .text._fstat   0x00001d92        0xa ./Drivers/retargetio.o
                0x00001d92                _fstat
 .text._isatty  0x00001d9c        0x4 ./Drivers/retargetio.o
                0x00001d9c                _isatty
 .text._lseek   0x00001da0        0x4 ./Drivers/retargetio.o
                0x00001da0                _lseek
 .text._read    0x00001da4       0x28 ./Drivers/retargetio.o
                0x00001da4                _read
 .text._write   0x00001dcc       0x1c ./Drivers/retargetio.o
                0x00001dcc                _write
 .text._sbrk    0x00001de8       0x54 ./Drivers/retargetio.o
                0x00001de8                _sbrk
 .text.INT_Disable
                0x00001e3c       0x18 ./Drivers/rtcdriver.o
 .text.INT_Enable
                0x00001e54       0x1c ./Drivers/rtcdriver.o
 .text.checkAllTimers
                0x00001e70       0xa0 ./Drivers/rtcdriver.o
 .text.executeTimerCallbacks
                0x00001f10       0x28 ./Drivers/rtcdriver.o
 .text.rescheduleRtc
                0x00001f38       0x90 ./Drivers/rtcdriver.o
 .text.RTCDRV_AllocateTimer
                0x00001fc8       0x44 ./Drivers/rtcdriver.o
                0x00001fc8                RTCDRV_AllocateTimer
 .text.RTCDRV_Init
                0x0000200c       0x98 ./Drivers/rtcdriver.o
                0x0000200c                RTCDRV_Init
 .text.RTC_IRQHandler
                0x000020a4       0x78 ./Drivers/rtcdriver.o
                0x000020a4                RTC_IRQHandler
 .text.UDELAY_Calibrate
                0x0000211c      0x1c0 ./Drivers/udelay.o
                0x0000211c                UDELAY_Calibrate
 .text.UDELAY_Delay
                0x000022dc       0x28 ./Drivers/udelay.o
                0x000022dc                UDELAY_Delay
 .text          0x00002304       0x30 ./CMSIS/efm32zg/startup_efm32zg.o
                0x00002304                Reset_Handler
                0x00002330                HardFault_Handler
                0x00002330                USART1_RX_IRQHandler
                0x00002330                PendSV_Handler
                0x00002330                NMI_Handler
                0x00002330                USART1_TX_IRQHandler
                0x00002330                MSC_IRQHandler
                0x00002330                ADC0_IRQHandler
                0x00002330                GPIO_EVEN_IRQHandler
                0x00002330                TIMER0_IRQHandler
                0x00002330                I2C0_IRQHandler
                0x00002330                TIMER1_IRQHandler
                0x00002330                Default_Handler
                0x00002330                PCNT0_IRQHandler
                0x00002330                ACMP0_IRQHandler
                0x00002330                SVC_Handler
                0x00002330                CMU_IRQHandler
                0x00002330                GPIO_ODD_IRQHandler
                0x00002330                AES_IRQHandler
                0x00002330                VCMP_IRQHandler
                0x00002330                DMA_IRQHandler
 .text.SystemHFClockGet
                0x00002334       0x98 ./CMSIS/efm32zg/system_efm32zg.o
                0x00002334                SystemHFClockGet
 .text.SystemCoreClockGet
                0x000023cc       0x20 ./CMSIS/efm32zg/system_efm32zg.o
                0x000023cc                SystemCoreClockGet
 .text.SystemInit
                0x000023ec        0x2 ./CMSIS/efm32zg/system_efm32zg.o
                0x000023ec                SystemInit
 .text.SystemLFRCOClockGet
                0x000023ee        0x6 ./CMSIS/efm32zg/system_efm32zg.o
                0x000023ee                SystemLFRCOClockGet
 .text.SystemULFRCOClockGet
                0x000023f4        0x6 ./CMSIS/efm32zg/system_efm32zg.o
                0x000023f4                SystemULFRCOClockGet
 *fill*         0x000023fa        0x2 
 .text.SystemLFXOClockGet
                0x000023fc        0xc ./CMSIS/efm32zg/system_efm32zg.o
                0x000023fc                SystemLFXOClockGet
 .text.printSolar
                0x00002408      0x130 ./src/main.o
                0x00002408                printSolar
 .text.printBattery
                0x00002538      0x130 ./src/main.o
                0x00002538                printBattery
 .text.printPWM
                0x00002668       0x38 ./src/main.o
                0x00002668                printPWM
 .text.LogUART  0x000026a0      0x258 ./src/main.o
                0x000026a0                LogUART
 .text.update_mppt
                0x000028f8      0x1b4 ./src/main.o
                0x000028f8                update_mppt
 .text.startup.main
                0x00002aac      0x1c4 ./src/main.o
                0x00002aac                main
 .text.SysTick_Handler
                0x00002c70       0x10 ./src/main.o
                0x00002c70                SysTick_Handler
 .text.LEUART0_IRQHandler
                0x00002c80       0x58 ./Drivers/retargetserial.o
                0x00002c80                LEUART0_IRQHandler
 .text.RETARGET_SerialInit
                0x00002cd8       0xd4 ./Drivers/retargetserial.o
                0x00002cd8                RETARGET_SerialInit
 .text.RETARGET_ReadChar
                0x00002dac       0x70 ./Drivers/retargetserial.o
                0x00002dac                RETARGET_ReadChar
 .text.RETARGET_WriteChar
                0x00002e1c       0x50 ./Drivers/retargetserial.o
                0x00002e1c                RETARGET_WriteChar
 .text          0x00002e6c       0x14 c:/siliconlabs/simplicitystudio/v3/developer/toolchains/gnu_arm/4.8_2013q4/bin/../lib/gcc/arm-none-eabi/4.8.3/armv6-m\libgcc.a(_thumb1_case_uqi.o)
                0x00002e6c                __gnu_thumb1_case_uqi
 .text          0x00002e80       0x9c c:/siliconlabs/simplicitystudio/v3/developer/toolchains/gnu_arm/4.8_2013q4/bin/../lib/gcc/arm-none-eabi/4.8.3/armv6-m\libgcc.a(_udivsi3.o)
                0x00002e80                __aeabi_uidiv
                0x00002e80                __udivsi3
                0x00002f08                __aeabi_uidivmod
 .text          0x00002f1c       0xc0 c:/siliconlabs/simplicitystudio/v3/developer/toolchains/gnu_arm/4.8_2013q4/bin/../lib/gcc/arm-none-eabi/4.8.3/armv6-m\libgcc.a(_divsi3.o)
                0x00002f1c                __divsi3
                0x00002f1c                __aeabi_idiv
                0x00002fc8                __aeabi_idivmod
 .text          0x00002fdc        0x4 c:/siliconlabs/simplicitystudio/v3/developer/toolchains/gnu_arm/4.8_2013q4/bin/../lib/gcc/arm-none-eabi/4.8.3/armv6-m\libgcc.a(_dvmd_tls.o)
                0x00002fdc                __aeabi_idiv0
                0x00002fdc                __aeabi_ldiv0
 .text          0x00002fe0       0x74 c:/siliconlabs/simplicitystudio/v3/developer/toolchains/gnu_arm/4.8_2013q4/bin/../lib/gcc/arm-none-eabi/4.8.3/armv6-m\libgcc.a(_arm_cmpsf2.o)
                0x00002fe0                __aeabi_cfrcmple
                0x00002fe8                __aeabi_cfcmpeq
                0x00002fe8                __aeabi_cfcmple
                0x00002ff8                __aeabi_fcmpeq
                0x00003004                __aeabi_fcmplt
                0x00003018                __aeabi_fcmple
                0x0000302c                __aeabi_fcmpgt
                0x00003040                __aeabi_fcmpge
 .text          0x00003054      0x2d8 c:/siliconlabs/simplicitystudio/v3/developer/toolchains/gnu_arm/4.8_2013q4/bin/../lib/gcc/arm-none-eabi/4.8.3/armv6-m\libgcc.a(addsf3.o)
                0x00003054                __aeabi_fadd
 .text          0x0000332c       0x50 c:/siliconlabs/simplicitystudio/v3/developer/toolchains/gnu_arm/4.8_2013q4/bin/../lib/gcc/arm-none-eabi/4.8.3/armv6-m\libgcc.a(eqsf2.o)
                0x0000332c                __eqsf2
                0x0000332c                __nesf2
 .text          0x0000337c       0x90 c:/siliconlabs/simplicitystudio/v3/developer/toolchains/gnu_arm/4.8_2013q4/bin/../lib/gcc/arm-none-eabi/4.8.3/armv6-m\libgcc.a(gesf2.o)
                0x0000337c                __gesf2
                0x0000337c                __gtsf2
 .text          0x0000340c       0x90 c:/siliconlabs/simplicitystudio/v3/developer/toolchains/gnu_arm/4.8_2013q4/bin/../lib/gcc/arm-none-eabi/4.8.3/armv6-m\libgcc.a(lesf2.o)
                0x0000340c                __ltsf2
                0x0000340c                __lesf2
 .text          0x0000349c      0x258 c:/siliconlabs/simplicitystudio/v3/developer/toolchains/gnu_arm/4.8_2013q4/bin/../lib/gcc/arm-none-eabi/4.8.3/armv6-m\libgcc.a(mulsf3.o)
                0x0000349c                __aeabi_fmul
 .text          0x000036f4       0xb8 c:/siliconlabs/simplicitystudio/v3/developer/toolchains/gnu_arm/4.8_2013q4/bin/../lib/gcc/arm-none-eabi/4.8.3/armv6-m\libgcc.a(floatsisf.o)
                0x000036f4                __aeabi_i2f
 .text          0x000037ac      0x524 c:/siliconlabs/simplicitystudio/v3/developer/toolchains/gnu_arm/4.8_2013q4/bin/../lib/gcc/arm-none-eabi/4.8.3/armv6-m\libgcc.a(muldf3.o)
                0x000037ac                __aeabi_dmul
 .text          0x00003cd0       0x68 c:/siliconlabs/simplicitystudio/v3/developer/toolchains/gnu_arm/4.8_2013q4/bin/../lib/gcc/arm-none-eabi/4.8.3/armv6-m\libgcc.a(fixdfsi.o)
                0x00003cd0                __aeabi_d2iz
 .text          0x00003d38       0x68 c:/siliconlabs/simplicitystudio/v3/developer/toolchains/gnu_arm/4.8_2013q4/bin/../lib/gcc/arm-none-eabi/4.8.3/armv6-m\libgcc.a(floatunsidf.o)
                0x00003d38                __aeabi_ui2d
 .text          0x00003da0       0xa4 c:/siliconlabs/simplicitystudio/v3/developer/toolchains/gnu_arm/4.8_2013q4/bin/../lib/gcc/arm-none-eabi/4.8.3/armv6-m\libgcc.a(extendsfdf2.o)
                0x00003da0                __aeabi_f2d
 .text          0x00003e44      0x118 c:/siliconlabs/simplicitystudio/v3/developer/toolchains/gnu_arm/4.8_2013q4/bin/../lib/gcc/arm-none-eabi/4.8.3/armv6-m\libgcc.a(truncdfsf2.o)
                0x00003e44                __aeabi_d2f
 .text          0x00003f5c       0x3c c:/siliconlabs/simplicitystudio/v3/developer/toolchains/gnu_arm/4.8_2013q4/bin/../lib/gcc/arm-none-eabi/4.8.3/armv6-m\libgcc.a(_clzsi2.o)
                0x00003f5c                __clzsi2
 .text.abs      0x00003f98        0x8 c:/siliconlabs/simplicitystudio/v3/developer/toolchains/gnu_arm/4.8_2013q4/bin/../lib/gcc/arm-none-eabi/4.8.3/../../../../arm-none-eabi/lib/armv6-m\libc_s.a(lib_a-abs.o)
                0x00003f98                abs
 .text.exit     0x00003fa0       0x2c c:/siliconlabs/simplicitystudio/v3/developer/toolchains/gnu_arm/4.8_2013q4/bin/../lib/gcc/arm-none-eabi/4.8.3/../../../../arm-none-eabi/lib/armv6-m\libc_s.a(lib_a-exit.o)
                0x00003fa0                exit
 .text.fileno   0x00003fcc       0x60 c:/siliconlabs/simplicitystudio/v3/developer/toolchains/gnu_arm/4.8_2013q4/bin/../lib/gcc/arm-none-eabi/4.8.3/../../../../arm-none-eabi/lib/armv6-m\libc_s.a(lib_a-fileno.o)
                0x00003fcc                fileno
 .text._cleanup_r
                0x0000402c       0x34 c:/siliconlabs/simplicitystudio/v3/developer/toolchains/gnu_arm/4.8_2013q4/bin/../lib/gcc/arm-none-eabi/4.8.3/../../../../arm-none-eabi/lib/armv6-m\libc_s.a(lib_a-findfp.o)
                0x0000402c                _cleanup_r
 .text.std.isra.0
                0x00004060       0x48 c:/siliconlabs/simplicitystudio/v3/developer/toolchains/gnu_arm/4.8_2013q4/bin/../lib/gcc/arm-none-eabi/4.8.3/../../../../arm-none-eabi/lib/armv6-m\libc_s.a(lib_a-findfp.o)
 .text.__sfmoreglue
                0x000040a8       0x2c c:/siliconlabs/simplicitystudio/v3/developer/toolchains/gnu_arm/4.8_2013q4/bin/../lib/gcc/arm-none-eabi/4.8.3/../../../../arm-none-eabi/lib/armv6-m\libc_s.a(lib_a-findfp.o)
                0x000040a8                __sfmoreglue
 .text.__sinit  0x000040d4       0x64 c:/siliconlabs/simplicitystudio/v3/developer/toolchains/gnu_arm/4.8_2013q4/bin/../lib/gcc/arm-none-eabi/4.8.3/../../../../arm-none-eabi/lib/armv6-m\libc_s.a(lib_a-findfp.o)
                0x000040d4                __sinit
 .text.__sfp    0x00004138       0x7c c:/siliconlabs/simplicitystudio/v3/developer/toolchains/gnu_arm/4.8_2013q4/bin/../lib/gcc/arm-none-eabi/4.8.3/../../../../arm-none-eabi/lib/armv6-m\libc_s.a(lib_a-findfp.o)
                0x00004138                __sfp
 .text.__libc_init_array
                0x000041b4       0x4c c:/siliconlabs/simplicitystudio/v3/developer/toolchains/gnu_arm/4.8_2013q4/bin/../lib/gcc/arm-none-eabi/4.8.3/../../../../arm-none-eabi/lib/armv6-m\libc_s.a(lib_a-init.o)
                0x000041b4                __libc_init_array
 .text.memcpy   0x00004200       0x12 c:/siliconlabs/simplicitystudio/v3/developer/toolchains/gnu_arm/4.8_2013q4/bin/../lib/gcc/arm-none-eabi/4.8.3/../../../../arm-none-eabi/lib/armv6-m\libc_s.a(lib_a-memcpy-stub.o)
                0x00004200                memcpy
 .text.memset   0x00004212       0x10 c:/siliconlabs/simplicitystudio/v3/developer/toolchains/gnu_arm/4.8_2013q4/bin/../lib/gcc/arm-none-eabi/4.8.3/../../../../arm-none-eabi/lib/armv6-m\libc_s.a(lib_a-memset.o)
                0x00004212                memset
 *fill*         0x00004222        0x2 
 .text._malloc_r
                0x00004224       0xa8 c:/siliconlabs/simplicitystudio/v3/developer/toolchains/gnu_arm/4.8_2013q4/bin/../lib/gcc/arm-none-eabi/4.8.3/../../../../arm-none-eabi/lib/armv6-m\libc_s.a(lib_a-nano-mallocr.o)
                0x00004224                _malloc_r
 .text.printf   0x000042cc       0x34 c:/siliconlabs/simplicitystudio/v3/developer/toolchains/gnu_arm/4.8_2013q4/bin/../lib/gcc/arm-none-eabi/4.8.3/../../../../arm-none-eabi/lib/armv6-m\libc_s.a(lib_a-printf.o)
                0x000042cc                iprintf
                0x000042cc                printf
 .text._sbrk_r  0x00004300       0x24 c:/siliconlabs/simplicitystudio/v3/developer/toolchains/gnu_arm/4.8_2013q4/bin/../lib/gcc/arm-none-eabi/4.8.3/../../../../arm-none-eabi/lib/armv6-m\libc_s.a(lib_a-sbrkr.o)
                0x00004300                _sbrk_r
 .text.setvbuf  0x00004324      0x10c c:/siliconlabs/simplicitystudio/v3/developer/toolchains/gnu_arm/4.8_2013q4/bin/../lib/gcc/arm-none-eabi/4.8.3/../../../../arm-none-eabi/lib/armv6-m\libc_s.a(lib_a-setvbuf.o)
                0x00004324                setvbuf
 .text.__sread  0x00004430       0x28 c:/siliconlabs/simplicitystudio/v3/developer/toolchains/gnu_arm/4.8_2013q4/bin/../lib/gcc/arm-none-eabi/4.8.3/../../../../arm-none-eabi/lib/armv6-m\libc_s.a(lib_a-stdio.o)
                0x00004430                __sread
 .text.__swrite
                0x00004458       0x38 c:/siliconlabs/simplicitystudio/v3/developer/toolchains/gnu_arm/4.8_2013q4/bin/../lib/gcc/arm-none-eabi/4.8.3/../../../../arm-none-eabi/lib/armv6-m\libc_s.a(lib_a-stdio.o)
                0x00004458                __swrite
 .text.__sseek  0x00004490       0x2c c:/siliconlabs/simplicitystudio/v3/developer/toolchains/gnu_arm/4.8_2013q4/bin/../lib/gcc/arm-none-eabi/4.8.3/../../../../arm-none-eabi/lib/armv6-m\libc_s.a(lib_a-stdio.o)
                0x00004490                __sseek
 .text.__sclose
                0x000044bc        0xc c:/siliconlabs/simplicitystudio/v3/developer/toolchains/gnu_arm/4.8_2013q4/bin/../lib/gcc/arm-none-eabi/4.8.3/../../../../arm-none-eabi/lib/armv6-m\libc_s.a(lib_a-stdio.o)
                0x000044bc                __sclose
 .text.strlen   0x000044c8        0xe c:/siliconlabs/simplicitystudio/v3/developer/toolchains/gnu_arm/4.8_2013q4/bin/../lib/gcc/arm-none-eabi/4.8.3/../../../../arm-none-eabi/lib/armv6-m\libc_s.a(lib_a-strlen.o)
                0x000044c8                strlen
 .text.__sfputc_r
                0x000044d6       0x2a c:/siliconlabs/simplicitystudio/v3/developer/toolchains/gnu_arm/4.8_2013q4/bin/../lib/gcc/arm-none-eabi/4.8.3/../../../../arm-none-eabi/lib/armv6-m\libc_s.a(lib_a-vfprintf.o)
 .text.__sfputs_r
                0x00004500       0x24 c:/siliconlabs/simplicitystudio/v3/developer/toolchains/gnu_arm/4.8_2013q4/bin/../lib/gcc/arm-none-eabi/4.8.3/../../../../arm-none-eabi/lib/armv6-m\libc_s.a(lib_a-vfprintf.o)
                0x00004500                __sfputs_r
 .text._vfprintf_r
                0x00004524      0x210 c:/siliconlabs/simplicitystudio/v3/developer/toolchains/gnu_arm/4.8_2013q4/bin/../lib/gcc/arm-none-eabi/4.8.3/../../../../arm-none-eabi/lib/armv6-m\libc_s.a(lib_a-vfprintf.o)
                0x00004524                _vfprintf_r
                0x00004524                _vfiprintf_r
 .text._printf_common
                0x00004734       0xe8 c:/siliconlabs/simplicitystudio/v3/developer/toolchains/gnu_arm/4.8_2013q4/bin/../lib/gcc/arm-none-eabi/4.8.3/../../../../arm-none-eabi/lib/armv6-m\libc_s.a(lib_a-vfprintf_i.o)
                0x00004734                _printf_common
 .text._printf_i
                0x0000481c      0x22c c:/siliconlabs/simplicitystudio/v3/developer/toolchains/gnu_arm/4.8_2013q4/bin/../lib/gcc/arm-none-eabi/4.8.3/../../../../arm-none-eabi/lib/armv6-m\libc_s.a(lib_a-vfprintf_i.o)
                0x0000481c                _printf_i
 .text.__swbuf_r
                0x00004a48       0xb0 c:/siliconlabs/simplicitystudio/v3/developer/toolchains/gnu_arm/4.8_2013q4/bin/../lib/gcc/arm-none-eabi/4.8.3/../../../../arm-none-eabi/lib/armv6-m\libc_s.a(lib_a-wbuf.o)
                0x00004a48                __swbuf_r
 .text._write_r
                0x00004af8       0x28 c:/siliconlabs/simplicitystudio/v3/developer/toolchains/gnu_arm/4.8_2013q4/bin/../lib/gcc/arm-none-eabi/4.8.3/../../../../arm-none-eabi/lib/armv6-m\libc_s.a(lib_a-writer.o)
                0x00004af8                _write_r
 .text.__swsetup_r
                0x00004b20       0xe4 c:/siliconlabs/simplicitystudio/v3/developer/toolchains/gnu_arm/4.8_2013q4/bin/../lib/gcc/arm-none-eabi/4.8.3/../../../../arm-none-eabi/lib/armv6-m\libc_s.a(lib_a-wsetup.o)
                0x00004b20                __swsetup_r
 .text._close_r
                0x00004c04       0x24 c:/siliconlabs/simplicitystudio/v3/developer/toolchains/gnu_arm/4.8_2013q4/bin/../lib/gcc/arm-none-eabi/4.8.3/../../../../arm-none-eabi/lib/armv6-m\libc_s.a(lib_a-closer.o)
                0x00004c04                _close_r
 .text.__sflush_r
                0x00004c28      0x112 c:/siliconlabs/simplicitystudio/v3/developer/toolchains/gnu_arm/4.8_2013q4/bin/../lib/gcc/arm-none-eabi/4.8.3/../../../../arm-none-eabi/lib/armv6-m\libc_s.a(lib_a-fflush.o)
                0x00004c28                __sflush_r
 *fill*         0x00004d3a        0x2 
 .text._fflush_r
                0x00004d3c       0x58 c:/siliconlabs/simplicitystudio/v3/developer/toolchains/gnu_arm/4.8_2013q4/bin/../lib/gcc/arm-none-eabi/4.8.3/../../../../arm-none-eabi/lib/armv6-m\libc_s.a(lib_a-fflush.o)
                0x00004d3c                _fflush_r
 .text._lseek_r
                0x00004d94       0x28 c:/siliconlabs/simplicitystudio/v3/developer/toolchains/gnu_arm/4.8_2013q4/bin/../lib/gcc/arm-none-eabi/4.8.3/../../../../arm-none-eabi/lib/armv6-m\libc_s.a(lib_a-lseekr.o)
                0x00004d94                _lseek_r
 .text.__smakebuf_r
                0x00004dbc       0xa0 c:/siliconlabs/simplicitystudio/v3/developer/toolchains/gnu_arm/4.8_2013q4/bin/../lib/gcc/arm-none-eabi/4.8.3/../../../../arm-none-eabi/lib/armv6-m\libc_s.a(lib_a-makebuf.o)
                0x00004dbc                __smakebuf_r
 .text.malloc   0x00004e5c       0x14 c:/siliconlabs/simplicitystudio/v3/developer/toolchains/gnu_arm/4.8_2013q4/bin/../lib/gcc/arm-none-eabi/4.8.3/../../../../arm-none-eabi/lib/armv6-m\libc_s.a(lib_a-malloc.o)
                0x00004e5c                malloc
 .text.memchr   0x00004e70       0x16 c:/siliconlabs/simplicitystudio/v3/developer/toolchains/gnu_arm/4.8_2013q4/bin/../lib/gcc/arm-none-eabi/4.8.3/../../../../arm-none-eabi/lib/armv6-m\libc_s.a(lib_a-memchr-stub.o)
                0x00004e70                memchr
 *fill*         0x00004e86        0x2 
 .text._free_r  0x00004e88       0x90 c:/siliconlabs/simplicitystudio/v3/developer/toolchains/gnu_arm/4.8_2013q4/bin/../lib/gcc/arm-none-eabi/4.8.3/../../../../arm-none-eabi/lib/armv6-m\libc_s.a(lib_a-nano-freer.o)
                0x00004e88                _free_r
 .text._read_r  0x00004f18       0x28 c:/siliconlabs/simplicitystudio/v3/developer/toolchains/gnu_arm/4.8_2013q4/bin/../lib/gcc/arm-none-eabi/4.8.3/../../../../arm-none-eabi/lib/armv6-m\libc_s.a(lib_a-readr.o)
                0x00004f18                _read_r
 .text._fstat_r
                0x00004f40       0x24 c:/siliconlabs/simplicitystudio/v3/developer/toolchains/gnu_arm/4.8_2013q4/bin/../lib/gcc/arm-none-eabi/4.8.3/../../../../arm-none-eabi/lib/armv6-m\libc_s.a(lib_a-fstatr.o)
                0x00004f40                _fstat_r
 .text._isatty_r
                0x00004f64       0x24 c:/siliconlabs/simplicitystudio/v3/developer/toolchains/gnu_arm/4.8_2013q4/bin/../lib/gcc/arm-none-eabi/4.8.3/../../../../arm-none-eabi/lib/armv6-m\libc_s.a(lib_a-isattyr.o)
                0x00004f64                _isatty_r
 *(.init)
 .init          0x00004f88        0x4 c:/siliconlabs/simplicitystudio/v3/developer/toolchains/gnu_arm/4.8_2013q4/bin/../lib/gcc/arm-none-eabi/4.8.3/armv6-m/crti.o
                0x00004f88                _init
 .init          0x00004f8c        0x8 c:/siliconlabs/simplicitystudio/v3/developer/toolchains/gnu_arm/4.8_2013q4/bin/../lib/gcc/arm-none-eabi/4.8.3/armv6-m/crtn.o
 *(.fini)
 .fini          0x00004f94        0x4 c:/siliconlabs/simplicitystudio/v3/developer/toolchains/gnu_arm/4.8_2013q4/bin/../lib/gcc/arm-none-eabi/4.8.3/armv6-m/crti.o
                0x00004f94                _fini
 .fini          0x00004f98        0x8 c:/siliconlabs/simplicitystudio/v3/developer/toolchains/gnu_arm/4.8_2013q4/bin/../lib/gcc/arm-none-eabi/4.8.3/armv6-m/crtn.o
 *crtbegin.o(.ctors)
 *crtbegin?.o(.ctors)
 *(EXCLUDE_FILE(*crtend.o *crtend?.o) .ctors)
 *(SORT(.ctors.*))
 *(.ctors)
 *crtbegin.o(.dtors)
 *crtbegin?.o(.dtors)
 *(EXCLUDE_FILE(*crtend.o *crtend?.o) .dtors)
 *(SORT(.dtors.*))
 *(.dtors)
 *(.rodata*)
 .rodata.str1.1
                0x00004fa0        0x7 ./src/my_printf.o
 .rodata.i2cNSum
                0x00004fa7        0x4 ./emlib/em_i2c.o
 *fill*         0x00004fab        0x1 
 .rodata.GLIB_FontNormal8x8
                0x00004fac       0x10 ./Graphics/glib_font_normal_8x8.o
                0x00004fac                GLIB_FontNormal8x8
 .rodata.GLIB_FontNormal8x8PixMap
                0x00004fbc      0x320 ./Graphics/glib_font_normal_8x8.o
 .rodata.str1.1
                0x000052dc       0x15 ./Drivers/displayls013b7dh03.o
 *fill*         0x000052f1        0x3 
 .rodata        0x000052f4       0x1c ./Drivers/displaypalemlib.o
 .rodata.heaperr.8163
                0x00005310       0x1a ./Drivers/retargetio.o
 .rodata.initRTC
                0x0000532a        0x3 ./Drivers/rtcdriver.o
 .rodata        0x0000532d        0x3 ./Drivers/udelay.o
 .rodata        0x00005330       0x18 ./src/main.o
 .rodata.str1.1
                0x00005348       0xf7 ./src/main.o
                                 0xfc (size before relaxing)
 *fill*         0x0000543f        0x1 
 .rodata        0x00005440       0x10 ./Drivers/retargetserial.o
 .rodata        0x00005450       0x40 c:/siliconlabs/simplicitystudio/v3/developer/toolchains/gnu_arm/4.8_2013q4/bin/../lib/gcc/arm-none-eabi/4.8.3/armv6-m\libgcc.a(mulsf3.o)
 .rodata        0x00005490       0x40 c:/siliconlabs/simplicitystudio/v3/developer/toolchains/gnu_arm/4.8_2013q4/bin/../lib/gcc/arm-none-eabi/4.8.3/armv6-m\libgcc.a(muldf3.o)
 .rodata.__sf_fake_stdin
                0x000054d0       0x20 c:/siliconlabs/simplicitystudio/v3/developer/toolchains/gnu_arm/4.8_2013q4/bin/../lib/gcc/arm-none-eabi/4.8.3/../../../../arm-none-eabi/lib/armv6-m\libc_s.a(lib_a-findfp.o)
                0x000054d0                __sf_fake_stdin
 .rodata.__sf_fake_stdout
                0x000054f0       0x20 c:/siliconlabs/simplicitystudio/v3/developer/toolchains/gnu_arm/4.8_2013q4/bin/../lib/gcc/arm-none-eabi/4.8.3/../../../../arm-none-eabi/lib/armv6-m\libc_s.a(lib_a-findfp.o)
                0x000054f0                __sf_fake_stdout
 .rodata.__sf_fake_stderr
                0x00005510       0x20 c:/siliconlabs/simplicitystudio/v3/developer/toolchains/gnu_arm/4.8_2013q4/bin/../lib/gcc/arm-none-eabi/4.8.3/../../../../arm-none-eabi/lib/armv6-m\libc_s.a(lib_a-findfp.o)
                0x00005510                __sf_fake_stderr
 .rodata.str1.1
                0x00005530        0x2 c:/siliconlabs/simplicitystudio/v3/developer/toolchains/gnu_arm/4.8_2013q4/bin/../lib/gcc/arm-none-eabi/4.8.3/../../../../arm-none-eabi/lib/armv6-m\libc_s.a(lib_a-impure.o)
 *fill*         0x00005532        0x2 
 .rodata._global_impure_ptr
                0x00005534        0x4 c:/siliconlabs/simplicitystudio/v3/developer/toolchains/gnu_arm/4.8_2013q4/bin/../lib/gcc/arm-none-eabi/4.8.3/../../../../arm-none-eabi/lib/armv6-m\libc_s.a(lib_a-impure.o)
                0x00005534                _global_impure_ptr
 .rodata.str1.1
                0x00005538       0x11 c:/siliconlabs/simplicitystudio/v3/developer/toolchains/gnu_arm/4.8_2013q4/bin/../lib/gcc/arm-none-eabi/4.8.3/../../../../arm-none-eabi/lib/armv6-m\libc_s.a(lib_a-vfprintf.o)
 .rodata.str1.1
                0x00005549       0x22 c:/siliconlabs/simplicitystudio/v3/developer/toolchains/gnu_arm/4.8_2013q4/bin/../lib/gcc/arm-none-eabi/4.8.3/../../../../arm-none-eabi/lib/armv6-m\libc_s.a(lib_a-vfprintf_i.o)
 *(.eh_frame*)
 *fill*         0x0000556b        0x1 
 .eh_frame      0x0000556c        0x0 c:/siliconlabs/simplicitystudio/v3/developer/toolchains/gnu_arm/4.8_2013q4/bin/../lib/gcc/arm-none-eabi/4.8.3/armv6-m/crtbegin.o
 .eh_frame      0x0000556c        0x4 c:/siliconlabs/simplicitystudio/v3/developer/toolchains/gnu_arm/4.8_2013q4/bin/../lib/gcc/arm-none-eabi/4.8.3/armv6-m/crtend.o

.glue_7         0x00005570        0x0
 .glue_7        0x00000000        0x0 linker stubs

.glue_7t        0x00005570        0x0
 .glue_7t       0x00000000        0x0 linker stubs

.vfp11_veneer   0x00005570        0x0
 .vfp11_veneer  0x00000000        0x0 linker stubs

.v4_bx          0x00005570        0x0
 .v4_bx         0x00000000        0x0 linker stubs

.iplt           0x00005570        0x0
 .iplt          0x00000000        0x0 c:/siliconlabs/simplicitystudio/v3/developer/toolchains/gnu_arm/4.8_2013q4/bin/../lib/gcc/arm-none-eabi/4.8.3/armv6-m/crtbegin.o

.ARM.extab
 *(.ARM.extab* .gnu.linkonce.armextab.*)
                0x00005570                __exidx_start = .

.ARM.exidx      0x00005570        0x8
 *(.ARM.exidx* .gnu.linkonce.armexidx.*)
 .ARM.exidx     0x00005570        0x8 c:/siliconlabs/simplicitystudio/v3/developer/toolchains/gnu_arm/4.8_2013q4/bin/../lib/gcc/arm-none-eabi/4.8.3/../../../../arm-none-eabi/lib/armv6-m/crt0.o
                0x00005578                __exidx_end = .
                0x00005578                __etext = .

.rel.dyn        0x00005578        0x0
 .rel.iplt      0x00000000        0x0 c:/siliconlabs/simplicitystudio/v3/developer/toolchains/gnu_arm/4.8_2013q4/bin/../lib/gcc/arm-none-eabi/4.8.3/armv6-m/crtbegin.o

.data           0x20000000       0x8c load address 0x00005578
                0x20000000                __data_start__ = .
 *(vtable)
 *(.data*)
 .data.pDisplayDeviceDriverInitFunctions
                0x20000000        0x8 ./Drivers/display.o
 .data.pixelMatrixPool
                0x20000008        0x4 ./Drivers/displayls013b7dh03.o
 .data.loops_per_jiffy
                0x2000000c        0x4 ./Drivers/udelay.o
                0x2000000c                loops_per_jiffy
 .data.SystemLFXOClock
                0x20000010        0x4 ./CMSIS/efm32zg/system_efm32zg.o
 .data.SystemHFXOClock
                0x20000014        0x4 ./CMSIS/efm32zg/system_efm32zg.o
 .data.pwm.9860
                0x20000018        0x2 ./src/main.o
 .data.up.9870  0x2000001a        0x2 ./src/main.o
 .data.impure_data
                0x2000001c       0x60 c:/siliconlabs/simplicitystudio/v3/developer/toolchains/gnu_arm/4.8_2013q4/bin/../lib/gcc/arm-none-eabi/4.8.3/../../../../arm-none-eabi/lib/armv6-m\libc_s.a(lib_a-impure.o)
 .data._impure_ptr
                0x2000007c        0x4 c:/siliconlabs/simplicitystudio/v3/developer/toolchains/gnu_arm/4.8_2013q4/bin/../lib/gcc/arm-none-eabi/4.8.3/../../../../arm-none-eabi/lib/armv6-m\libc_s.a(lib_a-impure.o)
                0x2000007c                _impure_ptr
                0x20000080                . = ALIGN (0x4)
 *(.ram)
                0x20000080                . = ALIGN (0x4)
                0x20000080                PROVIDE (__preinit_array_start, .)
 *(.preinit_array)
                0x20000080                PROVIDE (__preinit_array_end, .)
                0x20000080                . = ALIGN (0x4)
                0x20000080                PROVIDE (__init_array_start, .)
 *(SORT(.init_array.*))
 *(.init_array)
 .init_array    0x20000080        0x4 c:/siliconlabs/simplicitystudio/v3/developer/toolchains/gnu_arm/4.8_2013q4/bin/../lib/gcc/arm-none-eabi/4.8.3/armv6-m/crtbegin.o
                0x20000084                PROVIDE (__init_array_end, .)
                0x20000084                . = ALIGN (0x4)
                0x20000084                PROVIDE (__fini_array_start, .)
 *(SORT(.fini_array.*))
 *(.fini_array)
 .fini_array    0x20000084        0x4 c:/siliconlabs/simplicitystudio/v3/developer/toolchains/gnu_arm/4.8_2013q4/bin/../lib/gcc/arm-none-eabi/4.8.3/armv6-m/crtbegin.o
                0x20000088                PROVIDE (__fini_array_end, .)
 *(.jcr*)
 .jcr           0x20000088        0x0 c:/siliconlabs/simplicitystudio/v3/developer/toolchains/gnu_arm/4.8_2013q4/bin/../lib/gcc/arm-none-eabi/4.8.3/armv6-m/crtbegin.o
 .jcr           0x20000088        0x4 c:/siliconlabs/simplicitystudio/v3/developer/toolchains/gnu_arm/4.8_2013q4/bin/../lib/gcc/arm-none-eabi/4.8.3/armv6-m/crtend.o
                0x2000008c                . = ALIGN (0x4)
                0x2000008c                __data_end__ = .

.igot.plt       0x2000008c        0x0 load address 0x00005604
 .igot.plt      0x00000000        0x0 c:/siliconlabs/simplicitystudio/v3/developer/toolchains/gnu_arm/4.8_2013q4/bin/../lib/gcc/arm-none-eabi/4.8.3/armv6-m/crtbegin.o

.bss            0x20000090      0x9ec load address 0x00005608
                0x20000090                . = ALIGN (0x4)
                0x20000090                __bss_start__ = .
 *(.bss*)
 .bss           0x20000090       0x1c c:/siliconlabs/simplicitystudio/v3/developer/toolchains/gnu_arm/4.8_2013q4/bin/../lib/gcc/arm-none-eabi/4.8.3/armv6-m/crtbegin.o
 .bss.cmuStatus
                0x200000ac        0x4 ./emlib/em_emu.o
 .bss.i2cTransfer
                0x200000b0        0xc ./emlib/em_i2c.o
 .bss.INT_LockCnt
                0x200000bc        0x4 ./emlib/em_int.o
                0x200000bc                INT_LockCnt
 .bss.pixelMatrixBuffer
                0x200000c0        0x4 ./Graphics/dmd_display.o
 .bss.displayDevice
                0x200000c4       0x2c ./Graphics/dmd_display.o
 .bss.dimensions
                0x200000f0        0xc ./Graphics/dmd_display.o
 .bss.moduleInitialized
                0x200000fc        0x1 ./Graphics/dmd_display.o
 *fill*         0x200000fd        0x3 
 .bss.devicesRegistered
                0x20000100        0x4 ./Drivers/display.o
 .bss.deviceTable
                0x20000104       0x2c ./Drivers/display.o
 .bss.moduleInitialized
                0x20000130        0x1 ./Drivers/display.o
 .bss.pixelMatrixPoolBase
                0x20000131      0x800 ./Drivers/displayls013b7dh03.o
 *fill*         0x20000931        0x3 
 .bss.heap_end.8161
                0x20000934        0x4 ./Drivers/retargetio.o
 .bss.rtcRunning
                0x20000938        0x1 ./Drivers/rtcdriver.o
 .bss.rtcdrvIsInitialized
                0x20000939        0x1 ./Drivers/rtcdriver.o
 .bss.inTimerIRQ
                0x2000093a        0x1 ./Drivers/rtcdriver.o
 *fill*         0x2000093b        0x5 
 .bss.timer     0x20000940       0xa0 ./Drivers/rtcdriver.o
 .bss.startTimerNestingLevel
                0x200009e0        0x4 ./Drivers/rtcdriver.o
 .bss.lastStart
                0x200009e4        0x4 ./Drivers/rtcdriver.o
 .bss.last_power.9865
                0x200009e8        0x4 ./src/main.o
 .bss.solar_voltage.9867
                0x200009ec        0x4 ./src/main.o
 .bss.battery_power.9864
                0x200009f0        0x4 ./src/main.o
 .bss.battery_current.9863
                0x200009f4        0x4 ./src/main.o
 .bss.glibContext
                0x200009f8       0x2c ./src/main.o
 .bss.i.9821    0x20000a24        0x4 ./src/main.o
 .bss.battery_voltage.9862
                0x20000a28        0x4 ./src/main.o
 .bss.solar_current.9868
                0x20000a2c        0x4 ./src/main.o
 .bss.LFtoCRLF  0x20000a30        0x1 ./Drivers/retargetserial.o
 .bss.rxBuffer  0x20000a31        0x8 ./Drivers/retargetserial.o
 .bss.initialized
                0x20000a39        0x1 ./Drivers/retargetserial.o
 *fill*         0x20000a3a        0x2 
 .bss.rxWriteIndex
                0x20000a3c        0x4 ./Drivers/retargetserial.o
 .bss.rxReadIndex
                0x20000a40        0x4 ./Drivers/retargetserial.o
 .bss.rxCount   0x20000a44        0x4 ./Drivers/retargetserial.o
 .bss.__malloc_sbrk_start
                0x20000a48        0x4 c:/siliconlabs/simplicitystudio/v3/developer/toolchains/gnu_arm/4.8_2013q4/bin/../lib/gcc/arm-none-eabi/4.8.3/../../../../arm-none-eabi/lib/armv6-m\libc_s.a(lib_a-nano-mallocr.o)
                0x20000a48                __malloc_sbrk_start
 .bss.__malloc_free_list
                0x20000a4c        0x4 c:/siliconlabs/simplicitystudio/v3/developer/toolchains/gnu_arm/4.8_2013q4/bin/../lib/gcc/arm-none-eabi/4.8.3/../../../../arm-none-eabi/lib/armv6-m\libc_s.a(lib_a-nano-mallocr.o)
                0x20000a4c                __malloc_free_list
 *(COMMON)
 COMMON         0x20000a50       0x10 ./Graphics/dmd_display.o
                0x20000a50                dirtyRows
 COMMON         0x20000a60        0x4 ./CMSIS/efm32zg/system_efm32zg.o
                0x20000a60                SystemCoreClock
 COMMON         0x20000a64       0x14 ./src/main.o
                0x20000a64                gestureTimeoutTimerId
                0x20000a68                periodicUpdateTimerId
                0x20000a6c                msTicks
                0x20000a70                animationTimerId
                0x20000a74                millisecondsTimerId
 COMMON         0x20000a78        0x4 c:/siliconlabs/simplicitystudio/v3/developer/toolchains/gnu_arm/4.8_2013q4/bin/../lib/gcc/arm-none-eabi/4.8.3/../../../../arm-none-eabi/lib/armv6-m\libc_s.a(lib_a-reent.o)
                0x20000a78                errno
                0x20000a7c                . = ALIGN (0x4)
                0x20000a7c                __bss_end__ = .

.heap           0x20000a80        0x0
                0x20000a80                __HeapBase = .
                0x20000a80                __end__ = .
                0x20000a80                end = __end__
                0x20000a80                _end = __end__
 *(.heap*)
 .heap          0x20000a80        0x0 ./CMSIS/efm32zg/startup_efm32zg.o
                0x20000a80                __HeapLimit = .

.stack_dummy    0x20000a80      0x400
 *(.stack*)
 .stack         0x20000a80      0x400 ./CMSIS/efm32zg/startup_efm32zg.o
                0x20001000                __StackTop = (ORIGIN (RAM) + 0x1000)
                0x20000c00                __StackLimit = (__StackTop - SIZEOF (.stack_dummy))
                0x20001000                PROVIDE (__stack, __StackTop)
                0x00000001                ASSERT ((__StackLimit >= __HeapLimit), region RAM overflowed with stack)
                0x00000001                ASSERT ((0x8000 >= (__etext + SIZEOF (.data))), FLASH memory overflowed !)
OUTPUT(mppt.axf elf32-littlearm)

.ARM.attributes
                0x00000000       0x28
 .ARM.attributes
                0x00000000       0x1e c:/siliconlabs/simplicitystudio/v3/developer/toolchains/gnu_arm/4.8_2013q4/bin/../lib/gcc/arm-none-eabi/4.8.3/armv6-m/crti.o
 .ARM.attributes
                0x0000001e       0x2c c:/siliconlabs/simplicitystudio/v3/developer/toolchains/gnu_arm/4.8_2013q4/bin/../lib/gcc/arm-none-eabi/4.8.3/armv6-m/crtbegin.o
 .ARM.attributes
                0x0000004a       0x1b c:/siliconlabs/simplicitystudio/v3/developer/toolchains/gnu_arm/4.8_2013q4/bin/../lib/gcc/arm-none-eabi/4.8.3/../../../../arm-none-eabi/lib/armv6-m/crt0.o
 .ARM.attributes
                0x00000065       0x32 ./src/ina2xx.o
 .ARM.attributes
                0x00000097       0x32 ./src/my_printf.o
 .ARM.attributes
                0x000000c9       0x32 ./emlib/em_cmu.o
 .ARM.attributes
                0x000000fb       0x32 ./emlib/em_emu.o
 .ARM.attributes
                0x0000012d       0x32 ./emlib/em_gpio.o
 .ARM.attributes
                0x0000015f       0x32 ./emlib/em_i2c.o
 .ARM.attributes
                0x00000191       0x32 ./emlib/em_int.o
 .ARM.attributes
                0x000001c3       0x32 ./emlib/em_leuart.o
 .ARM.attributes
                0x000001f5       0x32 ./emlib/em_prs.o
 .ARM.attributes
                0x00000227       0x32 ./emlib/em_rtc.o
 .ARM.attributes
                0x00000259       0x32 ./emlib/em_timer.o
 .ARM.attributes
                0x0000028b       0x32 ./emlib/em_usart.o
 .ARM.attributes
                0x000002bd       0x32 ./Graphics/dmd_display.o
 .ARM.attributes
                0x000002ef       0x32 ./Graphics/glib.o
 .ARM.attributes
                0x00000321       0x32 ./Graphics/glib_font_normal_8x8.o
 .ARM.attributes
                0x00000353       0x32 ./Graphics/glib_rectangle.o
 .ARM.attributes
                0x00000385       0x32 ./Graphics/glib_string.o
 .ARM.attributes
                0x000003b7       0x32 ./Drivers/display.o
 .ARM.attributes
                0x000003e9       0x32 ./Drivers/displayls013b7dh03.o
 .ARM.attributes
                0x0000041b       0x32 ./Drivers/displaypalemlib.o
 .ARM.attributes
                0x0000044d       0x32 ./Drivers/i2cspm.o
 .ARM.attributes
                0x0000047f       0x32 ./Drivers/retargetio.o
 .ARM.attributes
                0x000004b1       0x32 ./Drivers/rtcdriver.o
 .ARM.attributes
                0x000004e3       0x2b ./Drivers/udelay.o
 .ARM.attributes
                0x0000050e       0x1b ./CMSIS/efm32zg/startup_efm32zg.o
 .ARM.attributes
                0x00000529       0x32 ./CMSIS/efm32zg/system_efm32zg.o
 .ARM.attributes
                0x0000055b       0x32 ./src/main.o
 .ARM.attributes
                0x0000058d       0x32 ./Drivers/retargetserial.o
 .ARM.attributes
                0x000005bf       0x1e c:/siliconlabs/simplicitystudio/v3/developer/toolchains/gnu_arm/4.8_2013q4/bin/../lib/gcc/arm-none-eabi/4.8.3/armv6-m\libgcc.a(_thumb1_case_uqi.o)
 .ARM.attributes
                0x000005dd       0x1e c:/siliconlabs/simplicitystudio/v3/developer/toolchains/gnu_arm/4.8_2013q4/bin/../lib/gcc/arm-none-eabi/4.8.3/armv6-m\libgcc.a(_udivsi3.o)
 .ARM.attributes
                0x000005fb       0x1e c:/siliconlabs/simplicitystudio/v3/developer/toolchains/gnu_arm/4.8_2013q4/bin/../lib/gcc/arm-none-eabi/4.8.3/armv6-m\libgcc.a(_divsi3.o)
 .ARM.attributes
                0x00000619       0x1e c:/siliconlabs/simplicitystudio/v3/developer/toolchains/gnu_arm/4.8_2013q4/bin/../lib/gcc/arm-none-eabi/4.8.3/armv6-m\libgcc.a(_dvmd_tls.o)
 .ARM.attributes
                0x00000637       0x1e c:/siliconlabs/simplicitystudio/v3/developer/toolchains/gnu_arm/4.8_2013q4/bin/../lib/gcc/arm-none-eabi/4.8.3/armv6-m\libgcc.a(_arm_cmpsf2.o)
 .ARM.attributes
                0x00000655       0x2c c:/siliconlabs/simplicitystudio/v3/developer/toolchains/gnu_arm/4.8_2013q4/bin/../lib/gcc/arm-none-eabi/4.8.3/armv6-m\libgcc.a(addsf3.o)
 .ARM.attributes
                0x00000681       0x2c c:/siliconlabs/simplicitystudio/v3/developer/toolchains/gnu_arm/4.8_2013q4/bin/../lib/gcc/arm-none-eabi/4.8.3/armv6-m\libgcc.a(eqsf2.o)
 .ARM.attributes
                0x000006ad       0x2c c:/siliconlabs/simplicitystudio/v3/developer/toolchains/gnu_arm/4.8_2013q4/bin/../lib/gcc/arm-none-eabi/4.8.3/armv6-m\libgcc.a(gesf2.o)
 .ARM.attributes
                0x000006d9       0x2c c:/siliconlabs/simplicitystudio/v3/developer/toolchains/gnu_arm/4.8_2013q4/bin/../lib/gcc/arm-none-eabi/4.8.3/armv6-m\libgcc.a(lesf2.o)
 .ARM.attributes
                0x00000705       0x2c c:/siliconlabs/simplicitystudio/v3/developer/toolchains/gnu_arm/4.8_2013q4/bin/../lib/gcc/arm-none-eabi/4.8.3/armv6-m\libgcc.a(mulsf3.o)
 .ARM.attributes
                0x00000731       0x2c c:/siliconlabs/simplicitystudio/v3/developer/toolchains/gnu_arm/4.8_2013q4/bin/../lib/gcc/arm-none-eabi/4.8.3/armv6-m\libgcc.a(floatsisf.o)
 .ARM.attributes
                0x0000075d       0x2c c:/siliconlabs/simplicitystudio/v3/developer/toolchains/gnu_arm/4.8_2013q4/bin/../lib/gcc/arm-none-eabi/4.8.3/armv6-m\libgcc.a(muldf3.o)
 .ARM.attributes
                0x00000789       0x2c c:/siliconlabs/simplicitystudio/v3/developer/toolchains/gnu_arm/4.8_2013q4/bin/../lib/gcc/arm-none-eabi/4.8.3/armv6-m\libgcc.a(fixdfsi.o)
 .ARM.attributes
                0x000007b5       0x2c c:/siliconlabs/simplicitystudio/v3/developer/toolchains/gnu_arm/4.8_2013q4/bin/../lib/gcc/arm-none-eabi/4.8.3/armv6-m\libgcc.a(floatunsidf.o)
 .ARM.attributes
                0x000007e1       0x2c c:/siliconlabs/simplicitystudio/v3/developer/toolchains/gnu_arm/4.8_2013q4/bin/../lib/gcc/arm-none-eabi/4.8.3/armv6-m\libgcc.a(extendsfdf2.o)
 .ARM.attributes
                0x0000080d       0x2c c:/siliconlabs/simplicitystudio/v3/developer/toolchains/gnu_arm/4.8_2013q4/bin/../lib/gcc/arm-none-eabi/4.8.3/armv6-m\libgcc.a(truncdfsf2.o)
 .ARM.attributes
                0x00000839       0x1e c:/siliconlabs/simplicitystudio/v3/developer/toolchains/gnu_arm/4.8_2013q4/bin/../lib/gcc/arm-none-eabi/4.8.3/armv6-m\libgcc.a(_clzsi2.o)
 .ARM.attributes
                0x00000857       0x2c c:/siliconlabs/simplicitystudio/v3/developer/toolchains/gnu_arm/4.8_2013q4/bin/../lib/gcc/arm-none-eabi/4.8.3/../../../../arm-none-eabi/lib/armv6-m\libc_s.a(lib_a-abs.o)
 .ARM.attributes
                0x00000883       0x2c c:/siliconlabs/simplicitystudio/v3/developer/toolchains/gnu_arm/4.8_2013q4/bin/../lib/gcc/arm-none-eabi/4.8.3/../../../../arm-none-eabi/lib/armv6-m\libc_s.a(lib_a-exit.o)
 .ARM.attributes
                0x000008af       0x2c c:/siliconlabs/simplicitystudio/v3/developer/toolchains/gnu_arm/4.8_2013q4/bin/../lib/gcc/arm-none-eabi/4.8.3/../../../../arm-none-eabi/lib/armv6-m\libc_s.a(lib_a-fileno.o)
 .ARM.attributes
                0x000008db       0x2c c:/siliconlabs/simplicitystudio/v3/developer/toolchains/gnu_arm/4.8_2013q4/bin/../lib/gcc/arm-none-eabi/4.8.3/../../../../arm-none-eabi/lib/armv6-m\libc_s.a(lib_a-findfp.o)
 .ARM.attributes
                0x00000907       0x2c c:/siliconlabs/simplicitystudio/v3/developer/toolchains/gnu_arm/4.8_2013q4/bin/../lib/gcc/arm-none-eabi/4.8.3/../../../../arm-none-eabi/lib/armv6-m\libc_s.a(lib_a-impure.o)
 .ARM.attributes
                0x00000933       0x2c c:/siliconlabs/simplicitystudio/v3/developer/toolchains/gnu_arm/4.8_2013q4/bin/../lib/gcc/arm-none-eabi/4.8.3/../../../../arm-none-eabi/lib/armv6-m\libc_s.a(lib_a-init.o)
 .ARM.attributes
                0x0000095f       0x2c c:/siliconlabs/simplicitystudio/v3/developer/toolchains/gnu_arm/4.8_2013q4/bin/../lib/gcc/arm-none-eabi/4.8.3/../../../../arm-none-eabi/lib/armv6-m\libc_s.a(lib_a-memcpy-stub.o)
 .ARM.attributes
                0x0000098b       0x2c c:/siliconlabs/simplicitystudio/v3/developer/toolchains/gnu_arm/4.8_2013q4/bin/../lib/gcc/arm-none-eabi/4.8.3/../../../../arm-none-eabi/lib/armv6-m\libc_s.a(lib_a-memset.o)
 .ARM.attributes
                0x000009b7       0x2c c:/siliconlabs/simplicitystudio/v3/developer/toolchains/gnu_arm/4.8_2013q4/bin/../lib/gcc/arm-none-eabi/4.8.3/../../../../arm-none-eabi/lib/armv6-m\libc_s.a(lib_a-nano-mallocr.o)
 .ARM.attributes
                0x000009e3       0x2c c:/siliconlabs/simplicitystudio/v3/developer/toolchains/gnu_arm/4.8_2013q4/bin/../lib/gcc/arm-none-eabi/4.8.3/../../../../arm-none-eabi/lib/armv6-m\libc_s.a(lib_a-printf.o)
 .ARM.attributes
                0x00000a0f       0x2c c:/siliconlabs/simplicitystudio/v3/developer/toolchains/gnu_arm/4.8_2013q4/bin/../lib/gcc/arm-none-eabi/4.8.3/../../../../arm-none-eabi/lib/armv6-m\libc_s.a(lib_a-sbrkr.o)
 .ARM.attributes
                0x00000a3b       0x2c c:/siliconlabs/simplicitystudio/v3/developer/toolchains/gnu_arm/4.8_2013q4/bin/../lib/gcc/arm-none-eabi/4.8.3/../../../../arm-none-eabi/lib/armv6-m\libc_s.a(lib_a-setvbuf.o)
 .ARM.attributes
                0x00000a67       0x2c c:/siliconlabs/simplicitystudio/v3/developer/toolchains/gnu_arm/4.8_2013q4/bin/../lib/gcc/arm-none-eabi/4.8.3/../../../../arm-none-eabi/lib/armv6-m\libc_s.a(lib_a-stdio.o)
 .ARM.attributes
                0x00000a93       0x2c c:/siliconlabs/simplicitystudio/v3/developer/toolchains/gnu_arm/4.8_2013q4/bin/../lib/gcc/arm-none-eabi/4.8.3/../../../../arm-none-eabi/lib/armv6-m\libc_s.a(lib_a-strlen.o)
 .ARM.attributes
                0x00000abf       0x2c c:/siliconlabs/simplicitystudio/v3/developer/toolchains/gnu_arm/4.8_2013q4/bin/../lib/gcc/arm-none-eabi/4.8.3/../../../../arm-none-eabi/lib/armv6-m\libc_s.a(lib_a-vfprintf.o)
 .ARM.attributes
                0x00000aeb       0x2c c:/siliconlabs/simplicitystudio/v3/developer/toolchains/gnu_arm/4.8_2013q4/bin/../lib/gcc/arm-none-eabi/4.8.3/../../../../arm-none-eabi/lib/armv6-m\libc_s.a(lib_a-vfprintf_i.o)
 .ARM.attributes
                0x00000b17       0x2c c:/siliconlabs/simplicitystudio/v3/developer/toolchains/gnu_arm/4.8_2013q4/bin/../lib/gcc/arm-none-eabi/4.8.3/../../../../arm-none-eabi/lib/armv6-m\libc_s.a(lib_a-wbuf.o)
 .ARM.attributes
                0x00000b43       0x2c c:/siliconlabs/simplicitystudio/v3/developer/toolchains/gnu_arm/4.8_2013q4/bin/../lib/gcc/arm-none-eabi/4.8.3/../../../../arm-none-eabi/lib/armv6-m\libc_s.a(lib_a-writer.o)
 .ARM.attributes
                0x00000b6f       0x2c c:/siliconlabs/simplicitystudio/v3/developer/toolchains/gnu_arm/4.8_2013q4/bin/../lib/gcc/arm-none-eabi/4.8.3/../../../../arm-none-eabi/lib/armv6-m\libc_s.a(lib_a-wsetup.o)
 .ARM.attributes
                0x00000b9b       0x2c c:/siliconlabs/simplicitystudio/v3/developer/toolchains/gnu_arm/4.8_2013q4/bin/../lib/gcc/arm-none-eabi/4.8.3/../../../../arm-none-eabi/lib/armv6-m\libc_s.a(lib_a-closer.o)
 .ARM.attributes
                0x00000bc7       0x2c c:/siliconlabs/simplicitystudio/v3/developer/toolchains/gnu_arm/4.8_2013q4/bin/../lib/gcc/arm-none-eabi/4.8.3/../../../../arm-none-eabi/lib/armv6-m\libc_s.a(lib_a-fflush.o)
 .ARM.attributes
                0x00000bf3       0x2c c:/siliconlabs/simplicitystudio/v3/developer/toolchains/gnu_arm/4.8_2013q4/bin/../lib/gcc/arm-none-eabi/4.8.3/../../../../arm-none-eabi/lib/armv6-m\libc_s.a(lib_a-lseekr.o)
 .ARM.attributes
                0x00000c1f       0x2c c:/siliconlabs/simplicitystudio/v3/developer/toolchains/gnu_arm/4.8_2013q4/bin/../lib/gcc/arm-none-eabi/4.8.3/../../../../arm-none-eabi/lib/armv6-m\libc_s.a(lib_a-makebuf.o)
 .ARM.attributes
                0x00000c4b       0x2c c:/siliconlabs/simplicitystudio/v3/developer/toolchains/gnu_arm/4.8_2013q4/bin/../lib/gcc/arm-none-eabi/4.8.3/../../../../arm-none-eabi/lib/armv6-m\libc_s.a(lib_a-malloc.o)
 .ARM.attributes
                0x00000c77       0x2c c:/siliconlabs/simplicitystudio/v3/developer/toolchains/gnu_arm/4.8_2013q4/bin/../lib/gcc/arm-none-eabi/4.8.3/../../../../arm-none-eabi/lib/armv6-m\libc_s.a(lib_a-memchr-stub.o)
 .ARM.attributes
                0x00000ca3       0x2c c:/siliconlabs/simplicitystudio/v3/developer/toolchains/gnu_arm/4.8_2013q4/bin/../lib/gcc/arm-none-eabi/4.8.3/../../../../arm-none-eabi/lib/armv6-m\libc_s.a(lib_a-nano-freer.o)
 .ARM.attributes
                0x00000ccf       0x2c c:/siliconlabs/simplicitystudio/v3/developer/toolchains/gnu_arm/4.8_2013q4/bin/../lib/gcc/arm-none-eabi/4.8.3/../../../../arm-none-eabi/lib/armv6-m\libc_s.a(lib_a-readr.o)
 .ARM.attributes
                0x00000cfb       0x2c c:/siliconlabs/simplicitystudio/v3/developer/toolchains/gnu_arm/4.8_2013q4/bin/../lib/gcc/arm-none-eabi/4.8.3/../../../../arm-none-eabi/lib/armv6-m\libc_s.a(lib_a-reent.o)
 .ARM.attributes
                0x00000d27       0x2c c:/siliconlabs/simplicitystudio/v3/developer/toolchains/gnu_arm/4.8_2013q4/bin/../lib/gcc/arm-none-eabi/4.8.3/../../../../arm-none-eabi/lib/armv6-m\libc_s.a(lib_a-fstatr.o)
 .ARM.attributes
                0x00000d53       0x2c c:/siliconlabs/simplicitystudio/v3/developer/toolchains/gnu_arm/4.8_2013q4/bin/../lib/gcc/arm-none-eabi/4.8.3/../../../../arm-none-eabi/lib/armv6-m\libc_s.a(lib_a-isattyr.o)
 .ARM.attributes
                0x00000d7f       0x2c c:/siliconlabs/simplicitystudio/v3/developer/toolchains/gnu_arm/4.8_2013q4/bin/../lib/gcc/arm-none-eabi/4.8.3/armv6-m/crtend.o
 .ARM.attributes
                0x00000dab       0x1e c:/siliconlabs/simplicitystudio/v3/developer/toolchains/gnu_arm/4.8_2013q4/bin/../lib/gcc/arm-none-eabi/4.8.3/armv6-m/crtn.o

.comment        0x00000000       0x70
 .comment       0x00000000       0x70 ./src/ina2xx.o
                                 0x71 (size before relaxing)
 .comment       0x00000000       0x71 ./src/my_printf.o
 .comment       0x00000000       0x71 ./emlib/em_cmu.o
 .comment       0x00000000       0x71 ./emlib/em_emu.o
 .comment       0x00000000       0x71 ./emlib/em_gpio.o
 .comment       0x00000000       0x71 ./emlib/em_i2c.o
 .comment       0x00000000       0x71 ./emlib/em_int.o
 .comment       0x00000000       0x71 ./emlib/em_leuart.o
 .comment       0x00000000       0x71 ./emlib/em_prs.o
 .comment       0x00000000       0x71 ./emlib/em_rtc.o
 .comment       0x00000000       0x71 ./emlib/em_timer.o
 .comment       0x00000000       0x71 ./emlib/em_usart.o
 .comment       0x00000000       0x71 ./Graphics/dmd_display.o
 .comment       0x00000000       0x71 ./Graphics/glib.o
 .comment       0x00000000       0x71 ./Graphics/glib_font_normal_8x8.o
 .comment       0x00000000       0x71 ./Graphics/glib_rectangle.o
 .comment       0x00000000       0x71 ./Graphics/glib_string.o
 .comment       0x00000000       0x71 ./Drivers/display.o
 .comment       0x00000000       0x71 ./Drivers/displayls013b7dh03.o
 .comment       0x00000000       0x71 ./Drivers/displaypalemlib.o
 .comment       0x00000000       0x71 ./Drivers/i2cspm.o
 .comment       0x00000000       0x71 ./Drivers/retargetio.o
 .comment       0x00000000       0x71 ./Drivers/rtcdriver.o
 .comment       0x00000000       0x71 ./Drivers/udelay.o
 .comment       0x00000000       0x71 ./CMSIS/efm32zg/system_efm32zg.o
 .comment       0x00000000       0x71 ./src/main.o
 .comment       0x00000000       0x71 ./Drivers/retargetserial.o

.debug_info     0x00000000    0x113d8
 .debug_info    0x00000000      0x997 ./src/ina2xx.o
 .debug_info    0x00000997      0x4a1 ./src/my_printf.o
 .debug_info    0x00000e38     0x1450 ./emlib/em_cmu.o
 .debug_info    0x00002288      0x648 ./emlib/em_emu.o
 .debug_info    0x000028d0      0x56e ./emlib/em_gpio.o
 .debug_info    0x00002e3e      0x865 ./emlib/em_i2c.o
 .debug_info    0x000036a3       0xa0 ./emlib/em_int.o
 .debug_info    0x00003743      0x967 ./emlib/em_leuart.o
 .debug_info    0x000040aa      0x207 ./emlib/em_prs.o
 .debug_info    0x000042b1      0x362 ./emlib/em_rtc.o
 .debug_info    0x00004613      0x5eb ./emlib/em_timer.o
 .debug_info    0x00004bfe      0xe87 ./emlib/em_usart.o
 .debug_info    0x00005a85      0xb2e ./Graphics/dmd_display.o
 .debug_info    0x000065b3      0xaa7 ./Graphics/glib.o
 .debug_info    0x0000705a      0x184 ./Graphics/glib_font_normal_8x8.o
 .debug_info    0x000071de      0x61a ./Graphics/glib_rectangle.o
 .debug_info    0x000077f8      0x60f ./Graphics/glib_string.o
 .debug_info    0x00007e07      0x4b8 ./Drivers/display.o
 .debug_info    0x000082bf      0xa98 ./Drivers/displayls013b7dh03.o
 .debug_info    0x00008d57     0x12f6 ./Drivers/displaypalemlib.o
 .debug_info    0x0000a04d      0x950 ./Drivers/i2cspm.o
 .debug_info    0x0000a99d      0xeab ./Drivers/retargetio.o
 .debug_info    0x0000b848     0x115a ./Drivers/rtcdriver.o
 .debug_info    0x0000c9a2      0xd24 ./Drivers/udelay.o
 .debug_info    0x0000d6c6       0xe3 ./CMSIS/efm32zg/startup_efm32zg.o
 .debug_info    0x0000d7a9      0x422 ./CMSIS/efm32zg/system_efm32zg.o
 .debug_info    0x0000dbcb     0x22da ./src/main.o
 .debug_info    0x0000fea5     0x1533 ./Drivers/retargetserial.o

.debug_abbrev   0x00000000     0x3cd4
 .debug_abbrev  0x00000000      0x1cb ./src/ina2xx.o
 .debug_abbrev  0x000001cb      0x1a1 ./src/my_printf.o
 .debug_abbrev  0x0000036c      0x3d7 ./emlib/em_cmu.o
 .debug_abbrev  0x00000743      0x228 ./emlib/em_emu.o
 .debug_abbrev  0x0000096b      0x1e2 ./emlib/em_gpio.o
 .debug_abbrev  0x00000b4d      0x2d0 ./emlib/em_i2c.o
 .debug_abbrev  0x00000e1d       0x42 ./emlib/em_int.o
 .debug_abbrev  0x00000e5f      0x2a6 ./emlib/em_leuart.o
 .debug_abbrev  0x00001105       0xe1 ./emlib/em_prs.o
 .debug_abbrev  0x000011e6      0x1e9 ./emlib/em_rtc.o
 .debug_abbrev  0x000013cf      0x147 ./emlib/em_timer.o
 .debug_abbrev  0x00001516      0x248 ./emlib/em_usart.o
 .debug_abbrev  0x0000175e      0x250 ./Graphics/dmd_display.o
 .debug_abbrev  0x000019ae      0x270 ./Graphics/glib.o
 .debug_abbrev  0x00001c1e       0xa7 ./Graphics/glib_font_normal_8x8.o
 .debug_abbrev  0x00001cc5      0x194 ./Graphics/glib_rectangle.o
 .debug_abbrev  0x00001e59      0x13f ./Graphics/glib_string.o
 .debug_abbrev  0x00001f98      0x158 ./Drivers/display.o
 .debug_abbrev  0x000020f0      0x292 ./Drivers/displayls013b7dh03.o
 .debug_abbrev  0x00002382      0x318 ./Drivers/displaypalemlib.o
 .debug_abbrev  0x0000269a      0x22c ./Drivers/i2cspm.o
 .debug_abbrev  0x000028c6      0x2ea ./Drivers/retargetio.o
 .debug_abbrev  0x00002bb0      0x423 ./Drivers/rtcdriver.o
 .debug_abbrev  0x00002fd3      0x2f4 ./Drivers/udelay.o
 .debug_abbrev  0x000032c7       0x14 ./CMSIS/efm32zg/startup_efm32zg.o
 .debug_abbrev  0x000032db      0x1a1 ./CMSIS/efm32zg/system_efm32zg.o
 .debug_abbrev  0x0000347c      0x49d ./src/main.o
 .debug_abbrev  0x00003919      0x3bb ./Drivers/retargetserial.o

.debug_loc      0x00000000     0x85dd
 .debug_loc     0x00000000      0x722 ./src/ina2xx.o
 .debug_loc     0x00000722      0x85e ./src/my_printf.o
 .debug_loc     0x00000f80     0x147a ./emlib/em_cmu.o
 .debug_loc     0x000023fa      0x178 ./emlib/em_emu.o
 .debug_loc     0x00002572      0x219 ./emlib/em_gpio.o
 .debug_loc     0x0000278b      0x541 ./emlib/em_i2c.o
 .debug_loc     0x00002ccc      0x6bb ./emlib/em_leuart.o
 .debug_loc     0x00003387      0x121 ./emlib/em_prs.o
 .debug_loc     0x000034a8       0xfb ./emlib/em_rtc.o
 .debug_loc     0x000035a3       0xe8 ./emlib/em_timer.o
 .debug_loc     0x0000368b      0x715 ./emlib/em_usart.o
 .debug_loc     0x00003da0      0xc8d ./Graphics/dmd_display.o
 .debug_loc     0x00004a2d      0x889 ./Graphics/glib.o
 .debug_loc     0x000052b6      0x4c1 ./Graphics/glib_rectangle.o
 .debug_loc     0x00005777      0x533 ./Graphics/glib_string.o
 .debug_loc     0x00005caa      0x250 ./Drivers/display.o
 .debug_loc     0x00005efa      0x5ad ./Drivers/displayls013b7dh03.o
 .debug_loc     0x000064a7      0x51a ./Drivers/displaypalemlib.o
 .debug_loc     0x000069c1      0x1d0 ./Drivers/i2cspm.o
 .debug_loc     0x00006b91      0x350 ./Drivers/retargetio.o
 .debug_loc     0x00006ee1      0x97e ./Drivers/rtcdriver.o
 .debug_loc     0x0000785f      0x2c4 ./Drivers/udelay.o
 .debug_loc     0x00007b23       0xfc ./CMSIS/efm32zg/system_efm32zg.o
 .debug_loc     0x00007c1f      0x8d2 ./src/main.o
 .debug_loc     0x000084f1       0xec ./Drivers/retargetserial.o

.debug_aranges  0x00000000      0x980
 .debug_aranges
                0x00000000       0x70 ./src/ina2xx.o
 .debug_aranges
                0x00000070       0x48 ./src/my_printf.o
 .debug_aranges
                0x000000b8       0xe8 ./emlib/em_cmu.o
 .debug_aranges
                0x000001a0       0x50 ./emlib/em_emu.o
 .debug_aranges
                0x000001f0       0x38 ./emlib/em_gpio.o
 .debug_aranges
                0x00000228       0x50 ./emlib/em_i2c.o
 .debug_aranges
                0x00000278       0x18 ./emlib/em_int.o
 .debug_aranges
                0x00000290       0x88 ./emlib/em_leuart.o
 .debug_aranges
                0x00000318       0x28 ./emlib/em_prs.o
 .debug_aranges
                0x00000340       0x50 ./emlib/em_rtc.o
 .debug_aranges
                0x00000390       0x30 ./emlib/em_timer.o
 .debug_aranges
                0x000003c0       0xb8 ./emlib/em_usart.o
 .debug_aranges
                0x00000478       0x88 ./Graphics/dmd_display.o
 .debug_aranges
                0x00000500       0x78 ./Graphics/glib.o
 .debug_aranges
                0x00000578       0x18 ./Graphics/glib_font_normal_8x8.o
 .debug_aranges
                0x00000590       0x38 ./Graphics/glib_rectangle.o
 .debug_aranges
                0x000005c8       0x30 ./Graphics/glib_string.o
 .debug_aranges
                0x000005f8       0x38 ./Drivers/display.o
 .debug_aranges
                0x00000630       0x58 ./Drivers/displayls013b7dh03.o
 .debug_aranges
                0x00000688       0x80 ./Drivers/displaypalemlib.o
 .debug_aranges
                0x00000708       0x28 ./Drivers/i2cspm.o
 .debug_aranges
                0x00000730       0x68 ./Drivers/retargetio.o
 .debug_aranges
                0x00000798       0x98 ./Drivers/rtcdriver.o
 .debug_aranges
                0x00000830       0x28 ./Drivers/udelay.o
 .debug_aranges
                0x00000858       0x20 ./CMSIS/efm32zg/startup_efm32zg.o
 .debug_aranges
                0x00000878       0x60 ./CMSIS/efm32zg/system_efm32zg.o
 .debug_aranges
                0x000008d8       0x68 ./src/main.o
 .debug_aranges
                0x00000940       0x40 ./Drivers/retargetserial.o

.debug_ranges   0x00000000      0xb28
 .debug_ranges  0x00000000       0x60 ./src/ina2xx.o
 .debug_ranges  0x00000060       0x38 ./src/my_printf.o
 .debug_ranges  0x00000098      0x178 ./emlib/em_cmu.o
 .debug_ranges  0x00000210       0x70 ./emlib/em_emu.o
 .debug_ranges  0x00000280       0x58 ./emlib/em_gpio.o
 .debug_ranges  0x000002d8       0x68 ./emlib/em_i2c.o
 .debug_ranges  0x00000340       0x78 ./emlib/em_leuart.o
 .debug_ranges  0x000003b8       0x18 ./emlib/em_prs.o
 .debug_ranges  0x000003d0       0x58 ./emlib/em_rtc.o
 .debug_ranges  0x00000428       0x20 ./emlib/em_timer.o
 .debug_ranges  0x00000448       0xa8 ./emlib/em_usart.o
 .debug_ranges  0x000004f0       0xa8 ./Graphics/dmd_display.o
 .debug_ranges  0x00000598       0x80 ./Graphics/glib.o
 .debug_ranges  0x00000618       0x28 ./Graphics/glib_rectangle.o
 .debug_ranges  0x00000640       0x20 ./Graphics/glib_string.o
 .debug_ranges  0x00000660       0x28 ./Drivers/display.o
 .debug_ranges  0x00000688       0x48 ./Drivers/displayls013b7dh03.o
 .debug_ranges  0x000006d0       0xd8 ./Drivers/displaypalemlib.o
 .debug_ranges  0x000007a8       0x18 ./Drivers/i2cspm.o
 .debug_ranges  0x000007c0       0x58 ./Drivers/retargetio.o
 .debug_ranges  0x00000818      0x1a0 ./Drivers/rtcdriver.o
 .debug_ranges  0x000009b8       0x18 ./Drivers/udelay.o
 .debug_ranges  0x000009d0       0x50 ./CMSIS/efm32zg/system_efm32zg.o
 .debug_ranges  0x00000a20       0x88 ./src/main.o
 .debug_ranges  0x00000aa8       0x80 ./Drivers/retargetserial.o

.debug_line     0x00000000     0x5aa6
 .debug_line    0x00000000      0x2fa ./src/ina2xx.o
 .debug_line    0x000002fa      0x1f1 ./src/my_printf.o
 .debug_line    0x000004eb      0x6b7 ./emlib/em_cmu.o
 .debug_line    0x00000ba2      0x398 ./emlib/em_emu.o
 .debug_line    0x00000f3a      0x257 ./emlib/em_gpio.o
 .debug_line    0x00001191      0x35e ./emlib/em_i2c.o
 .debug_line    0x000014ef       0xdb ./emlib/em_int.o
 .debug_line    0x000015ca      0x34b ./emlib/em_leuart.o
 .debug_line    0x00001915      0x1da ./emlib/em_prs.o
 .debug_line    0x00001aef      0x26e ./emlib/em_rtc.o
 .debug_line    0x00001d5d      0x24b ./emlib/em_timer.o
 .debug_line    0x00001fa8      0x41f ./emlib/em_usart.o
 .debug_line    0x000023c7      0x50e ./Graphics/dmd_display.o
 .debug_line    0x000028d5      0x307 ./Graphics/glib.o
 .debug_line    0x00002bdc       0xfb ./Graphics/glib_font_normal_8x8.o
 .debug_line    0x00002cd7      0x22b ./Graphics/glib_rectangle.o
 .debug_line    0x00002f02      0x2f0 ./Graphics/glib_string.o
 .debug_line    0x000031f2      0x247 ./Drivers/display.o
 .debug_line    0x00003439      0x31e ./Drivers/displayls013b7dh03.o
 .debug_line    0x00003757      0x43b ./Drivers/displaypalemlib.o
 .debug_line    0x00003b92      0x25f ./Drivers/i2cspm.o
 .debug_line    0x00003df1      0x35d ./Drivers/retargetio.o
 .debug_line    0x0000414e      0x794 ./Drivers/rtcdriver.o
 .debug_line    0x000048e2      0x35e ./Drivers/udelay.o
 .debug_line    0x00004c40       0xc0 ./CMSIS/efm32zg/startup_efm32zg.o
 .debug_line    0x00004d00      0x23a ./CMSIS/efm32zg/system_efm32zg.o
 .debug_line    0x00004f3a      0x742 ./src/main.o
 .debug_line    0x0000567c      0x42a ./Drivers/retargetserial.o

.debug_str      0x00000000     0x44de
 .debug_str     0x00000000      0x4bd ./src/ina2xx.o
                                0x53e (size before relaxing)
 .debug_str     0x000004bd       0x79 ./src/my_printf.o
                                0x230 (size before relaxing)
 .debug_str     0x00000536      0x93c ./emlib/em_cmu.o
                                0xb28 (size before relaxing)
 .debug_str     0x00000e72      0x16d ./emlib/em_emu.o
                                0x44f (size before relaxing)
 .debug_str     0x00000fdf      0x326 ./emlib/em_gpio.o
                                0x546 (size before relaxing)
 .debug_str     0x00001305      0x206 ./emlib/em_i2c.o
                                0x6b3 (size before relaxing)
 .debug_str     0x0000150b       0x5a ./emlib/em_int.o
                                0x1e3 (size before relaxing)
 .debug_str     0x00001565      0x2e0 ./emlib/em_leuart.o
                                0x65e (size before relaxing)
 .debug_str     0x00001845       0xf7 ./emlib/em_prs.o
                                0x295 (size before relaxing)
 .debug_str     0x0000193c       0xf4 ./emlib/em_rtc.o
                                0x2c2 (size before relaxing)
 .debug_str     0x00001a30      0x502 ./emlib/em_timer.o
                                0x6d1 (size before relaxing)
 .debug_str     0x00001f32      0x800 ./emlib/em_usart.o
                                0xbd1 (size before relaxing)
 .debug_str     0x00002732      0x4c8 ./Graphics/dmd_display.o
                                0x67a (size before relaxing)
 .debug_str     0x00002bfa      0x2dd ./Graphics/glib.o
                                0x5b0 (size before relaxing)
 .debug_str     0x00002ed7       0x7d ./Graphics/glib_font_normal_8x8.o
                                0x2d8 (size before relaxing)
 .debug_str     0x00002f54       0xc3 ./Graphics/glib_rectangle.o
                                0x4aa (size before relaxing)
 .debug_str     0x00003017       0xef ./Graphics/glib_string.o
                                0x4aa (size before relaxing)
 .debug_str     0x00003106      0x121 ./Drivers/display.o
                                0x479 (size before relaxing)
 .debug_str     0x00003227      0x1ce ./Drivers/displayls013b7dh03.o
                                0x5cf (size before relaxing)
 .debug_str     0x000033f5      0x151 ./Drivers/displaypalemlib.o
                                0xda7 (size before relaxing)
 .debug_str     0x00003546       0x69 ./Drivers/i2cspm.o
                                0x856 (size before relaxing)
 .debug_str     0x000035af      0x565 ./Drivers/retargetio.o
                                0x7a7 (size before relaxing)
 .debug_str     0x00003b14      0x4f2 ./Drivers/rtcdriver.o
                                0x9dd (size before relaxing)
 .debug_str     0x00004006      0x108 ./Drivers/udelay.o
                                0x8f7 (size before relaxing)
 .debug_str     0x0000410e       0xe2 ./CMSIS/efm32zg/system_efm32zg.o
                                0x3e4 (size before relaxing)
 .debug_str     0x000041f0      0x24b ./src/main.o
                               0x124b (size before relaxing)
 .debug_str     0x0000443b       0xa3 ./Drivers/retargetserial.o
                                0xea8 (size before relaxing)

.debug_frame    0x00000000     0x2000
 .debug_frame   0x00000000      0x158 ./src/ina2xx.o
 .debug_frame   0x00000158       0xbc ./src/my_printf.o
 .debug_frame   0x00000214      0x238 ./emlib/em_cmu.o
 .debug_frame   0x0000044c       0xa0 ./emlib/em_emu.o
 .debug_frame   0x000004ec       0x74 ./emlib/em_gpio.o
 .debug_frame   0x00000560       0xb8 ./emlib/em_i2c.o
 .debug_frame   0x00000618      0x158 ./emlib/em_leuart.o
 .debug_frame   0x00000770       0x38 ./emlib/em_prs.o
 .debug_frame   0x000007a8       0x88 ./emlib/em_rtc.o
 .debug_frame   0x00000830       0x58 ./emlib/em_timer.o
 .debug_frame   0x00000888      0x1b8 ./emlib/em_usart.o
 .debug_frame   0x00000a40      0x178 ./Graphics/dmd_display.o
 .debug_frame   0x00000bb8      0x160 ./Graphics/glib.o
 .debug_frame   0x00000d18       0x7c ./Graphics/glib_rectangle.o
 .debug_frame   0x00000d94       0x68 ./Graphics/glib_string.o
 .debug_frame   0x00000dfc       0x70 ./Drivers/display.o
 .debug_frame   0x00000e6c       0xe0 ./Drivers/displayls013b7dh03.o
 .debug_frame   0x00000f4c      0x13c ./Drivers/displaypalemlib.o
 .debug_frame   0x00001088       0x50 ./Drivers/i2cspm.o
 .debug_frame   0x000010d8       0xd8 ./Drivers/retargetio.o
 .debug_frame   0x000011b0      0x1b8 ./Drivers/rtcdriver.o
 .debug_frame   0x00001368       0x40 ./Drivers/udelay.o
 .debug_frame   0x000013a8       0xb8 ./CMSIS/efm32zg/system_efm32zg.o
 .debug_frame   0x00001460      0x128 ./src/main.o
 .debug_frame   0x00001588       0x94 ./Drivers/retargetserial.o
 .debug_frame   0x0000161c       0x20 c:/siliconlabs/simplicitystudio/v3/developer/toolchains/gnu_arm/4.8_2013q4/bin/../lib/gcc/arm-none-eabi/4.8.3/armv6-m\libgcc.a(_udivsi3.o)
 .debug_frame   0x0000163c       0x20 c:/siliconlabs/simplicitystudio/v3/developer/toolchains/gnu_arm/4.8_2013q4/bin/../lib/gcc/arm-none-eabi/4.8.3/armv6-m\libgcc.a(_divsi3.o)
 .debug_frame   0x0000165c       0x30 c:/siliconlabs/simplicitystudio/v3/developer/toolchains/gnu_arm/4.8_2013q4/bin/../lib/gcc/arm-none-eabi/4.8.3/armv6-m\libgcc.a(addsf3.o)
 .debug_frame   0x0000168c       0x2c c:/siliconlabs/simplicitystudio/v3/developer/toolchains/gnu_arm/4.8_2013q4/bin/../lib/gcc/arm-none-eabi/4.8.3/armv6-m\libgcc.a(eqsf2.o)
 .debug_frame   0x000016b8       0x30 c:/siliconlabs/simplicitystudio/v3/developer/toolchains/gnu_arm/4.8_2013q4/bin/../lib/gcc/arm-none-eabi/4.8.3/armv6-m\libgcc.a(gesf2.o)
 .debug_frame   0x000016e8       0x30 c:/siliconlabs/simplicitystudio/v3/developer/toolchains/gnu_arm/4.8_2013q4/bin/../lib/gcc/arm-none-eabi/4.8.3/armv6-m\libgcc.a(lesf2.o)
 .debug_frame   0x00001718       0x3c c:/siliconlabs/simplicitystudio/v3/developer/toolchains/gnu_arm/4.8_2013q4/bin/../lib/gcc/arm-none-eabi/4.8.3/armv6-m\libgcc.a(mulsf3.o)
 .debug_frame   0x00001754       0x2c c:/siliconlabs/simplicitystudio/v3/developer/toolchains/gnu_arm/4.8_2013q4/bin/../lib/gcc/arm-none-eabi/4.8.3/armv6-m\libgcc.a(floatsisf.o)
 .debug_frame   0x00001780       0x3c c:/siliconlabs/simplicitystudio/v3/developer/toolchains/gnu_arm/4.8_2013q4/bin/../lib/gcc/arm-none-eabi/4.8.3/armv6-m\libgcc.a(muldf3.o)
 .debug_frame   0x000017bc       0x2c c:/siliconlabs/simplicitystudio/v3/developer/toolchains/gnu_arm/4.8_2013q4/bin/../lib/gcc/arm-none-eabi/4.8.3/armv6-m\libgcc.a(fixdfsi.o)
 .debug_frame   0x000017e8       0x28 c:/siliconlabs/simplicitystudio/v3/developer/toolchains/gnu_arm/4.8_2013q4/bin/../lib/gcc/arm-none-eabi/4.8.3/armv6-m\libgcc.a(floatunsidf.o)
 .debug_frame   0x00001810       0x2c c:/siliconlabs/simplicitystudio/v3/developer/toolchains/gnu_arm/4.8_2013q4/bin/../lib/gcc/arm-none-eabi/4.8.3/armv6-m\libgcc.a(extendsfdf2.o)
 .debug_frame   0x0000183c       0x30 c:/siliconlabs/simplicitystudio/v3/developer/toolchains/gnu_arm/4.8_2013q4/bin/../lib/gcc/arm-none-eabi/4.8.3/armv6-m\libgcc.a(truncdfsf2.o)
 .debug_frame   0x0000186c       0x20 c:/siliconlabs/simplicitystudio/v3/developer/toolchains/gnu_arm/4.8_2013q4/bin/../lib/gcc/arm-none-eabi/4.8.3/../../../../arm-none-eabi/lib/armv6-m\libc_s.a(lib_a-abs.o)
 .debug_frame   0x0000188c       0x28 c:/siliconlabs/simplicitystudio/v3/developer/toolchains/gnu_arm/4.8_2013q4/bin/../lib/gcc/arm-none-eabi/4.8.3/../../../../arm-none-eabi/lib/armv6-m\libc_s.a(lib_a-exit.o)
 .debug_frame   0x000018b4       0x2c c:/siliconlabs/simplicitystudio/v3/developer/toolchains/gnu_arm/4.8_2013q4/bin/../lib/gcc/arm-none-eabi/4.8.3/../../../../arm-none-eabi/lib/armv6-m\libc_s.a(lib_a-fileno.o)
 .debug_frame   0x000018e0      0x148 c:/siliconlabs/simplicitystudio/v3/developer/toolchains/gnu_arm/4.8_2013q4/bin/../lib/gcc/arm-none-eabi/4.8.3/../../../../arm-none-eabi/lib/armv6-m\libc_s.a(lib_a-findfp.o)
 .debug_frame   0x00001a28       0x2c c:/siliconlabs/simplicitystudio/v3/developer/toolchains/gnu_arm/4.8_2013q4/bin/../lib/gcc/arm-none-eabi/4.8.3/../../../../arm-none-eabi/lib/armv6-m\libc_s.a(lib_a-init.o)
 .debug_frame   0x00001a54       0x28 c:/siliconlabs/simplicitystudio/v3/developer/toolchains/gnu_arm/4.8_2013q4/bin/../lib/gcc/arm-none-eabi/4.8.3/../../../../arm-none-eabi/lib/armv6-m\libc_s.a(lib_a-memcpy-stub.o)
 .debug_frame   0x00001a7c       0x20 c:/siliconlabs/simplicitystudio/v3/developer/toolchains/gnu_arm/4.8_2013q4/bin/../lib/gcc/arm-none-eabi/4.8.3/../../../../arm-none-eabi/lib/armv6-m\libc_s.a(lib_a-memset.o)
 .debug_frame   0x00001a9c       0x2c c:/siliconlabs/simplicitystudio/v3/developer/toolchains/gnu_arm/4.8_2013q4/bin/../lib/gcc/arm-none-eabi/4.8.3/../../../../arm-none-eabi/lib/armv6-m\libc_s.a(lib_a-nano-mallocr.o)
 .debug_frame   0x00001ac8       0x50 c:/siliconlabs/simplicitystudio/v3/developer/toolchains/gnu_arm/4.8_2013q4/bin/../lib/gcc/arm-none-eabi/4.8.3/../../../../arm-none-eabi/lib/armv6-m\libc_s.a(lib_a-printf.o)
 .debug_frame   0x00001b18       0x2c c:/siliconlabs/simplicitystudio/v3/developer/toolchains/gnu_arm/4.8_2013q4/bin/../lib/gcc/arm-none-eabi/4.8.3/../../../../arm-none-eabi/lib/armv6-m\libc_s.a(lib_a-sbrkr.o)
 .debug_frame   0x00001b44       0x34 c:/siliconlabs/simplicitystudio/v3/developer/toolchains/gnu_arm/4.8_2013q4/bin/../lib/gcc/arm-none-eabi/4.8.3/../../../../arm-none-eabi/lib/armv6-m\libc_s.a(lib_a-setvbuf.o)
 .debug_frame   0x00001b78       0x90 c:/siliconlabs/simplicitystudio/v3/developer/toolchains/gnu_arm/4.8_2013q4/bin/../lib/gcc/arm-none-eabi/4.8.3/../../../../arm-none-eabi/lib/armv6-m\libc_s.a(lib_a-stdio.o)
 .debug_frame   0x00001c08       0x20 c:/siliconlabs/simplicitystudio/v3/developer/toolchains/gnu_arm/4.8_2013q4/bin/../lib/gcc/arm-none-eabi/4.8.3/../../../../arm-none-eabi/lib/armv6-m\libc_s.a(lib_a-strlen.o)
 .debug_frame   0x00001c28       0xa0 c:/siliconlabs/simplicitystudio/v3/developer/toolchains/gnu_arm/4.8_2013q4/bin/../lib/gcc/arm-none-eabi/4.8.3/../../../../arm-none-eabi/lib/armv6-m\libc_s.a(lib_a-vfprintf.o)
 .debug_frame   0x00001cc8       0x54 c:/siliconlabs/simplicitystudio/v3/developer/toolchains/gnu_arm/4.8_2013q4/bin/../lib/gcc/arm-none-eabi/4.8.3/../../../../arm-none-eabi/lib/armv6-m\libc_s.a(lib_a-vfprintf_i.o)
 .debug_frame   0x00001d1c       0x44 c:/siliconlabs/simplicitystudio/v3/developer/toolchains/gnu_arm/4.8_2013q4/bin/../lib/gcc/arm-none-eabi/4.8.3/../../../../arm-none-eabi/lib/armv6-m\libc_s.a(lib_a-wbuf.o)
 .debug_frame   0x00001d60       0x2c c:/siliconlabs/simplicitystudio/v3/developer/toolchains/gnu_arm/4.8_2013q4/bin/../lib/gcc/arm-none-eabi/4.8.3/../../../../arm-none-eabi/lib/armv6-m\libc_s.a(lib_a-writer.o)
 .debug_frame   0x00001d8c       0x2c c:/siliconlabs/simplicitystudio/v3/developer/toolchains/gnu_arm/4.8_2013q4/bin/../lib/gcc/arm-none-eabi/4.8.3/../../../../arm-none-eabi/lib/armv6-m\libc_s.a(lib_a-wsetup.o)
 .debug_frame   0x00001db8       0x2c c:/siliconlabs/simplicitystudio/v3/developer/toolchains/gnu_arm/4.8_2013q4/bin/../lib/gcc/arm-none-eabi/4.8.3/../../../../arm-none-eabi/lib/armv6-m\libc_s.a(lib_a-closer.o)
 .debug_frame   0x00001de4       0x68 c:/siliconlabs/simplicitystudio/v3/developer/toolchains/gnu_arm/4.8_2013q4/bin/../lib/gcc/arm-none-eabi/4.8.3/../../../../arm-none-eabi/lib/armv6-m\libc_s.a(lib_a-fflush.o)
 .debug_frame   0x00001e4c       0x2c c:/siliconlabs/simplicitystudio/v3/developer/toolchains/gnu_arm/4.8_2013q4/bin/../lib/gcc/arm-none-eabi/4.8.3/../../../../arm-none-eabi/lib/armv6-m\libc_s.a(lib_a-lseekr.o)
 .debug_frame   0x00001e78       0x30 c:/siliconlabs/simplicitystudio/v3/developer/toolchains/gnu_arm/4.8_2013q4/bin/../lib/gcc/arm-none-eabi/4.8.3/../../../../arm-none-eabi/lib/armv6-m\libc_s.a(lib_a-makebuf.o)
 .debug_frame   0x00001ea8       0x40 c:/siliconlabs/simplicitystudio/v3/developer/toolchains/gnu_arm/4.8_2013q4/bin/../lib/gcc/arm-none-eabi/4.8.3/../../../../arm-none-eabi/lib/armv6-m\libc_s.a(lib_a-malloc.o)
 .debug_frame   0x00001ee8       0x20 c:/siliconlabs/simplicitystudio/v3/developer/toolchains/gnu_arm/4.8_2013q4/bin/../lib/gcc/arm-none-eabi/4.8.3/../../../../arm-none-eabi/lib/armv6-m\libc_s.a(lib_a-memchr-stub.o)
 .debug_frame   0x00001f08       0x2c c:/siliconlabs/simplicitystudio/v3/developer/toolchains/gnu_arm/4.8_2013q4/bin/../lib/gcc/arm-none-eabi/4.8.3/../../../../arm-none-eabi/lib/armv6-m\libc_s.a(lib_a-nano-freer.o)
 .debug_frame   0x00001f34       0x2c c:/siliconlabs/simplicitystudio/v3/developer/toolchains/gnu_arm/4.8_2013q4/bin/../lib/gcc/arm-none-eabi/4.8.3/../../../../arm-none-eabi/lib/armv6-m\libc_s.a(lib_a-readr.o)
 .debug_frame   0x00001f60       0x48 c:/siliconlabs/simplicitystudio/v3/developer/toolchains/gnu_arm/4.8_2013q4/bin/../lib/gcc/arm-none-eabi/4.8.3/../../../../arm-none-eabi/lib/armv6-m\libc_s.a(lib_a-reent.o)
 .debug_frame   0x00001fa8       0x2c c:/siliconlabs/simplicitystudio/v3/developer/toolchains/gnu_arm/4.8_2013q4/bin/../lib/gcc/arm-none-eabi/4.8.3/../../../../arm-none-eabi/lib/armv6-m\libc_s.a(lib_a-fstatr.o)
 .debug_frame   0x00001fd4       0x2c c:/siliconlabs/simplicitystudio/v3/developer/toolchains/gnu_arm/4.8_2013q4/bin/../lib/gcc/arm-none-eabi/4.8.3/../../../../arm-none-eabi/lib/armv6-m\libc_s.a(lib_a-isattyr.o)
